{
  "contractName": "crowdao",
  "abi": [
    {
      "inputs": [],
      "stateMutability": "nonpayable",
      "type": "constructor"
    },
    {
      "anonymous": false,
      "inputs": [
        {
          "indexed": true,
          "internalType": "uint256",
          "name": "proposalIndex",
          "type": "uint256"
        },
        {
          "indexed": true,
          "internalType": "address",
          "name": "applicant",
          "type": "address"
        },
        {
          "indexed": true,
          "internalType": "address",
          "name": "memberAddress",
          "type": "address"
        },
        {
          "indexed": false,
          "internalType": "uint256",
          "name": "tokenTribute",
          "type": "uint256"
        },
        {
          "indexed": false,
          "internalType": "uint256",
          "name": "sharesRequested",
          "type": "uint256"
        },
        {
          "indexed": false,
          "internalType": "bool",
          "name": "didPass",
          "type": "bool"
        }
      ],
      "name": "ProcessProposal",
      "type": "event"
    },
    {
      "anonymous": false,
      "inputs": [
        {
          "indexed": false,
          "internalType": "uint256",
          "name": "proposalIndex",
          "type": "uint256"
        },
        {
          "indexed": true,
          "internalType": "address",
          "name": "proposer",
          "type": "address"
        },
        {
          "indexed": false,
          "internalType": "uint256",
          "name": "totalworth",
          "type": "uint256"
        }
      ],
      "name": "SubmitProposal",
      "type": "event"
    },
    {
      "anonymous": false,
      "inputs": [
        {
          "indexed": true,
          "internalType": "uint256",
          "name": "proposalIndex",
          "type": "uint256"
        },
        {
          "indexed": true,
          "internalType": "address",
          "name": "delegateKey",
          "type": "address"
        },
        {
          "indexed": true,
          "internalType": "address",
          "name": "memberAddress",
          "type": "address"
        },
        {
          "indexed": false,
          "internalType": "uint8",
          "name": "uintVote",
          "type": "uint8"
        }
      ],
      "name": "SubmitVote",
      "type": "event"
    },
    {
      "inputs": [
        {
          "internalType": "uint256",
          "name": "",
          "type": "uint256"
        }
      ],
      "name": "arr",
      "outputs": [
        {
          "internalType": "address",
          "name": "",
          "type": "address"
        }
      ],
      "stateMutability": "view",
      "type": "function",
      "constant": true
    },
    {
      "inputs": [],
      "name": "chairperson",
      "outputs": [
        {
          "internalType": "address",
          "name": "",
          "type": "address"
        }
      ],
      "stateMutability": "view",
      "type": "function",
      "constant": true
    },
    {
      "inputs": [
        {
          "internalType": "uint256",
          "name": "",
          "type": "uint256"
        }
      ],
      "name": "proposals",
      "outputs": [
        {
          "internalType": "uint256",
          "name": "uid",
          "type": "uint256"
        },
        {
          "internalType": "string",
          "name": "name",
          "type": "string"
        },
        {
          "internalType": "uint256",
          "name": "proposalvalue",
          "type": "uint256"
        },
        {
          "internalType": "address payable",
          "name": "proposer",
          "type": "address"
        },
        {
          "internalType": "uint256",
          "name": "startingPeriod",
          "type": "uint256"
        },
        {
          "internalType": "uint256",
          "name": "yesVotes",
          "type": "uint256"
        },
        {
          "internalType": "uint256",
          "name": "yesPostVotes",
          "type": "uint256"
        },
        {
          "internalType": "uint256",
          "name": "noVotes",
          "type": "uint256"
        },
        {
          "internalType": "uint256",
          "name": "noPostVotes",
          "type": "uint256"
        },
        {
          "internalType": "bool",
          "name": "processed",
          "type": "bool"
        },
        {
          "internalType": "bool",
          "name": "didPass",
          "type": "bool"
        },
        {
          "internalType": "bool",
          "name": "didfinalPass",
          "type": "bool"
        },
        {
          "internalType": "bool",
          "name": "aborted",
          "type": "bool"
        }
      ],
      "stateMutability": "view",
      "type": "function",
      "constant": true
    },
    {
      "inputs": [
        {
          "internalType": "address",
          "name": "",
          "type": "address"
        }
      ],
      "name": "voters",
      "outputs": [
        {
          "internalType": "bool",
          "name": "voted",
          "type": "bool"
        },
        {
          "internalType": "uint256",
          "name": "vote",
          "type": "uint256"
        }
      ],
      "stateMutability": "view",
      "type": "function",
      "constant": true
    },
    {
      "inputs": [
        {
          "internalType": "uint256",
          "name": "value",
          "type": "uint256"
        }
      ],
      "name": "selfAdd",
      "outputs": [
        {
          "internalType": "uint256",
          "name": "",
          "type": "uint256"
        }
      ],
      "stateMutability": "nonpayable",
      "type": "function"
    },
    {
      "inputs": [],
      "name": "invest",
      "outputs": [
        {
          "internalType": "bool",
          "name": "",
          "type": "bool"
        }
      ],
      "stateMutability": "payable",
      "type": "function",
      "payable": true
    },
    {
      "inputs": [],
      "name": "BalanceOfchairperson",
      "outputs": [
        {
          "internalType": "uint256",
          "name": "",
          "type": "uint256"
        }
      ],
      "stateMutability": "view",
      "type": "function",
      "constant": true
    },
    {
      "inputs": [
        {
          "internalType": "address payable",
          "name": "_member",
          "type": "address"
        }
      ],
      "name": "BalanceOfmember",
      "outputs": [
        {
          "internalType": "uint256",
          "name": "",
          "type": "uint256"
        }
      ],
      "stateMutability": "view",
      "type": "function",
      "constant": true
    },
    {
      "inputs": [
        {
          "internalType": "address",
          "name": "addr",
          "type": "address"
        }
      ],
      "name": "getBalance",
      "outputs": [
        {
          "internalType": "uint256",
          "name": "",
          "type": "uint256"
        }
      ],
      "stateMutability": "view",
      "type": "function",
      "constant": true
    },
    {
      "inputs": [
        {
          "internalType": "address payable",
          "name": "_to",
          "type": "address"
        },
        {
          "internalType": "uint256",
          "name": "_value",
          "type": "uint256"
        }
      ],
      "name": "Transfer",
      "outputs": [],
      "stateMutability": "payable",
      "type": "function",
      "payable": true
    },
    {
      "inputs": [
        {
          "internalType": "uint256",
          "name": "_proposalIndex",
          "type": "uint256"
        },
        {
          "internalType": "address",
          "name": "memaddr",
          "type": "address"
        }
      ],
      "name": "ProposalFundBlock",
      "outputs": [],
      "stateMutability": "nonpayable",
      "type": "function"
    },
    {
      "inputs": [
        {
          "internalType": "uint256",
          "name": "proposalIndex",
          "type": "uint256"
        }
      ],
      "name": "refundFunds",
      "outputs": [
        {
          "internalType": "bool",
          "name": "",
          "type": "bool"
        }
      ],
      "stateMutability": "nonpayable",
      "type": "function"
    },
    {
      "inputs": [
        {
          "internalType": "string",
          "name": "_proposalname",
          "type": "string"
        },
        {
          "internalType": "uint256",
          "name": "_proposalworth",
          "type": "uint256"
        }
      ],
      "name": "addProposal",
      "outputs": [
        {
          "internalType": "bool",
          "name": "",
          "type": "bool"
        }
      ],
      "stateMutability": "nonpayable",
      "type": "function"
    },
    {
      "inputs": [],
      "name": "proposalCount",
      "outputs": [
        {
          "internalType": "uint256",
          "name": "",
          "type": "uint256"
        }
      ],
      "stateMutability": "view",
      "type": "function",
      "constant": true
    },
    {
      "inputs": [
        {
          "internalType": "string",
          "name": "_proposalname",
          "type": "string"
        },
        {
          "internalType": "uint256",
          "name": "_proposalworth",
          "type": "uint256"
        }
      ],
      "name": "FetchProposalIndex",
      "outputs": [
        {
          "internalType": "uint256",
          "name": "",
          "type": "uint256"
        }
      ],
      "stateMutability": "view",
      "type": "function",
      "constant": true
    },
    {
      "inputs": [
        {
          "internalType": "uint256",
          "name": "_index",
          "type": "uint256"
        }
      ],
      "name": "getProposalByIndex",
      "outputs": [
        {
          "internalType": "uint256",
          "name": "",
          "type": "uint256"
        },
        {
          "internalType": "string",
          "name": "",
          "type": "string"
        },
        {
          "internalType": "uint256",
          "name": "",
          "type": "uint256"
        },
        {
          "internalType": "uint256",
          "name": "",
          "type": "uint256"
        },
        {
          "internalType": "uint256",
          "name": "",
          "type": "uint256"
        },
        {
          "internalType": "bool",
          "name": "",
          "type": "bool"
        },
        {
          "internalType": "address",
          "name": "",
          "type": "address"
        }
      ],
      "stateMutability": "view",
      "type": "function",
      "constant": true
    },
    {
      "inputs": [],
      "name": "getProposalCount",
      "outputs": [
        {
          "internalType": "uint256",
          "name": "count",
          "type": "uint256"
        }
      ],
      "stateMutability": "view",
      "type": "function",
      "constant": true
    },
    {
      "inputs": [
        {
          "internalType": "uint256",
          "name": "_proposalIndex",
          "type": "uint256"
        }
      ],
      "name": "hasProposalPassed",
      "outputs": [
        {
          "internalType": "bool",
          "name": "",
          "type": "bool"
        }
      ],
      "stateMutability": "nonpayable",
      "type": "function"
    },
    {
      "inputs": [
        {
          "internalType": "uint256",
          "name": "_proposalIndex",
          "type": "uint256"
        }
      ],
      "name": "hasVotingPeriodExpired",
      "outputs": [
        {
          "internalType": "bool",
          "name": "",
          "type": "bool"
        }
      ],
      "stateMutability": "view",
      "type": "function",
      "constant": true
    },
    {
      "inputs": [
        {
          "internalType": "uint256",
          "name": "_proposalIndex",
          "type": "uint256"
        }
      ],
      "name": "ComputeTotalShare",
      "outputs": [
        {
          "internalType": "uint256",
          "name": "",
          "type": "uint256"
        }
      ],
      "stateMutability": "view",
      "type": "function",
      "constant": true
    },
    {
      "inputs": [
        {
          "internalType": "uint256",
          "name": "proposalIndex",
          "type": "uint256"
        },
        {
          "internalType": "uint8",
          "name": "uintVote",
          "type": "uint8"
        }
      ],
      "name": "submitVote",
      "outputs": [],
      "stateMutability": "nonpayable",
      "type": "function"
    },
    {
      "inputs": [
        {
          "internalType": "uint256",
          "name": "proposalIndex",
          "type": "uint256"
        },
        {
          "internalType": "uint8",
          "name": "uintVote",
          "type": "uint8"
        }
      ],
      "name": "submitPassedVote",
      "outputs": [],
      "stateMutability": "nonpayable",
      "type": "function"
    }
  ],
  "bytecode": "0x608060405234801561001057600080fd5b50600180546001600160a01b03199081163017808355600060058190556001600160a01b039182168152602081905260408082208290558454909216808252919020909201805490911690911790556119e78061006e6000396000f3fe6080604052600436106101355760003560e01c806399653fbe116100ab578063d15b0a4d1161006f578063d15b0a4d146106d9578063da35c664146105fa578063e56cf0d414610703578063e6a9da2314610736578063e8b5e51f14610760578063f8b2cb4f1461076857610135565b806399653fbe14610579578063a3ec138d146105ac578063c08cc02d146105fa578063c208abdc1461060f578063c5657820146106c457610135565b806345057903116100fd57806345057903146103df5780634ea00e411461041a5780636414b6a1146104cf57806369ca02dd146104f957806371e5ee5f146105255780639425a4761461054f57610135565b8063013cf08b1461013a5780630c21669c1461025257806315f1bbfe146102975780632e4176cf146102d557806337d1d38914610306575b600080fd5b34801561014657600080fd5b506101646004803603602081101561015d57600080fd5b503561079b565b604051808e8152602001806020018d81526020018c6001600160a01b03166001600160a01b031681526020018b81526020018a81526020018981526020018881526020018781526020018615151515815260200185151515158152602001841515151581526020018315151515815260200182810382528e818151815260200191508051906020019080838360005b8381101561020b5781810151838201526020016101f3565b50505050905090810190601f1680156102385780820380516001836020036101000a031916815260200191505b509e50505050505050505050505050505060405180910390f35b34801561025e57600080fd5b506102856004803603602081101561027557600080fd5b50356001600160a01b03166108c0565b60408051918252519081900360200190f35b3480156102a357600080fd5b506102c1600480360360208110156102ba57600080fd5b50356108d1565b604080519115158252519081900360200190f35b3480156102e157600080fd5b506102ea610a0b565b604080516001600160a01b039092168252519081900360200190f35b34801561031257600080fd5b506103306004803603602081101561032957600080fd5b5035610a1a565b60408051888152908101869052606081018590526080810184905282151560a08201526001600160a01b03821660c082015260e0602080830182815289519284019290925288516101008401918a019080838360005b8381101561039e578181015183820152602001610386565b50505050905090810190601f1680156103cb5780820380516001836020036101000a031916815260200191505b509850505050505050505060405180910390f35b3480156103eb57600080fd5b506104186004803603604081101561040257600080fd5b50803590602001356001600160a01b0316610bc1565b005b34801561042657600080fd5b506102856004803603604081101561043d57600080fd5b81019060208101813564010000000081111561045857600080fd5b82018360208201111561046a57600080fd5b8035906020019184600183028401116401000000008311171561048c57600080fd5b91908080601f0160208091040260200160405190810160405280939291908181526020018383808284376000920191909152509295505091359250610bfc915050565b3480156104db57600080fd5b506102c1600480360360208110156104f257600080fd5b5035610d75565b6104186004803603604081101561050f57600080fd5b506001600160a01b038135169060200135610e6d565b34801561053157600080fd5b506102ea6004803603602081101561054857600080fd5b5035610f28565b34801561055b57600080fd5b506102c16004803603602081101561057257600080fd5b5035610f4f565b34801561058557600080fd5b506104186004803603604081101561059c57600080fd5b508035906020013560ff16610f82565b3480156105b857600080fd5b506105df600480360360208110156105cf57600080fd5b50356001600160a01b03166111e8565b60408051921515835260208301919091528051918290030190f35b34801561060657600080fd5b50610285611207565b34801561061b57600080fd5b506102c16004803603604081101561063257600080fd5b81019060208101813564010000000081111561064d57600080fd5b82018360208201111561065f57600080fd5b8035906020019184600183028401116401000000008311171561068157600080fd5b91908080601f016020809104026020016040519081016040528093929190818152602001838380828437600092019190915250929550509135925061120e915050565b3480156106d057600080fd5b506102856114aa565b3480156106e557600080fd5b50610285600480360360208110156106fc57600080fd5b50356114ba565b34801561070f57600080fd5b506104186004803603604081101561072657600080fd5b508035906020013560ff1661152d565b34801561074257600080fd5b506102856004803603602081101561075957600080fd5b503561168e565b6102c161173f565b34801561077457600080fd5b506102856004803603602081101561078b57600080fd5b50356001600160a01b031661178a565b600481815481106107a857fe5b90600052602060002090600c0201600091509050806000015490806001018054600181600116156101000203166002900480601f01602080910402602001604051908101604052809291908181526020018280546001816001161561010002031660029004801561085a5780601f1061082f5761010080835404028352916020019161085a565b820191906000526020600020905b81548152906001019060200180831161083d57829003601f168201915b50505060028401546003850154600486015460058701546006880154600789015460088a01546009909a0154989995986001600160a01b0390951697509295509093909260ff80821691610100810482169162010000820481169163010000009004168d565b6001600160a01b038116315b919050565b600080600483815481106108e157fe5b6000918252602082206003600c909202010154600480546001600160a01b039092169350908590811061091057fe5b90600052602060002090600c020160020154905060006004858154811061093357fe5b60009182526020909120600b600c90920201015490508015610a005760005b600182038110156109fe576001600160a01b03841660009081526020819052604090205483116109f6576001600160a01b0384166000908152602081905260408120805485900390556004805485929182918a9081106109ae57fe5b90600052602060002090600c0201600b0184815481106109ca57fe5b60009182526020808320909101546001600160a01b031683528201929092526040019020805490910190555b600101610952565b505b506001949350505050565b6001546001600160a01b031681565b60006060600080600080600060048881548110610a3357fe5b90600052602060002090600c02016000015460048981548110610a5257fe5b90600052602060002090600c020160010160048a81548110610a7057fe5b90600052602060002090600c02016002015460048b81548110610a8f57fe5b90600052602060002090600c02016005015460048c81548110610aae57fe5b90600052602060002090600c02016007015460048d81548110610acd57fe5b90600052602060002090600c020160090160019054906101000a900460ff1660048e81548110610af957fe5b60009182526020918290206003600c909202010154865460408051601f600260001960018616156101000201909416939093049283018590048502810185019091528181526001600160a01b0390921692889190830182828015610b9e5780601f10610b7357610100808354040283529160200191610b9e565b820191906000526020600020905b815481529060010190602001808311610b8157829003601f168201915b505050505095508090509650965096509650965096509650919395979092949650565b6000610bcc8361168e565b9050610bd88282610e6d565b6001600160a01b039091166000908152602081905260409020805491909103905550565b6000805b600454811015610d6d57836040516020018082805190602001908083835b60208310610c3d5780518252601f199092019160209182019101610c1e565b6001836020036101000a0380198251168184511680821785525050505050509050019150506040516020818303038152906040528051906020012060048281548110610c8557fe5b90600052602060002090600c02016001016040516020018082805460018160011615610100020316600290048015610cf45780601f10610cd2576101008083540402835291820191610cf4565b820191906000526020600020905b815481529060010190602001808311610ce0575b505091505060405160208183030381529060405280519060200120148015610d3957508260048281548110610d2557fe5b90600052602060002090600c020160020154145b15610d655760048181548110610d4b57fe5b90600052602060002090600c020160000154915050610d6f565b600101610c00565b505b92915050565b60008060048381548110610d8557fe5b90600052602060002090600c02016007015460048481548110610da457fe5b90600052602060002090600c020160050154019050603c8160048581548110610dc957fe5b90600052602060002090600c02016005015481610de257fe5b0460640210610e2c57600160048481548110610dfa57fe5b90600052602060002090600c020160090160016101000a81548160ff02191690831515021790555060019150506108cc565b600060048481548110610e3b57fe5b90600052602060002090600c020160090160016101000a81548160ff02191690831515021790555060009150506108cc565b6001546001600160a01b0316600090815260208190526040902054811115610ec65760405162461bcd60e51b81526004018080602001828103825260228152602001806119906022913960400191505060405180910390fd5b6001546001600160a01b039081166000908152602081905260408082208054859003905591841680825282822080548590039055915183156108fc0291849190818181858888f19350505050158015610f23573d6000803e3d6000fd5b505050565b60028181548110610f3557fe5b6000918252602090912001546001600160a01b0316905081565b60008060048381548110610f5f57fe5b90600052602060002090600c020160040154905060148142031015915050919050565b33600060ff83166002811115610f9457fe5b9050600060048581548110610fa557fe5b600091825260208083206001600160a01b0387168452600a600c90930201919091019052604090205460ff166002811115610fdc57fe5b146110185760405162461bcd60e51b815260040180806020018281038252603e81526020018061192c603e913960400191505060405180910390fd5b600181600281111561102657fe5b148061103d5750600281600281111561103b57fe5b145b6110785760405162461bcd60e51b81526004018080602001828103825260328152602001806118c36032913960400191505060405180910390fd5b806004858154811061108657fe5b600091825260208083206001600160a01b0387168452600a600c9093020191909101905260409020805460ff191660018360028111156110c257fe5b0217905550600484815481106110d457fe5b60009182526020808320600c92909202909101600b01805460018082018355918452919092200180546001600160a01b0319166001600160a01b03851617905581600281111561112057fe5b14156111545760016004858154811061113557fe5b600091825260209091206005600c909202010180549091019055611192565b600281600281111561116257fe5b14156111925760016004858154811061117757fe5b600091825260209091206007600c9092020101805490910190555b61119c8433610bc1565b6040805160ff8516815290516001600160a01b03841691339187917f29bf0061f2faa9daa482f061b116195432d435536d8af4ae6b3c5dd78223679b919081900360200190a450505050565b6003602052600090815260409020805460019091015460ff9091169082565b6004545b90565b3360008181526020819052604081206001015490916001600160a01b039091161461126a5760405162461bcd60e51b81526004018080602001828103825260378152602001806118f56037913960400191505060405180910390fd5b6005805460010190819055604080516101c0810182529182526020808301869052828201859052336060840152426080840152600060a0840181905260c0840181905260e08401819052610100840181905261012084018190526101408401819052610160840181905261018084015260028054835181840281018401909452808452600494936101a08501939092919083018282801561133457602002820191906000526020600020905b81546001600160a01b03168152600190910190602001808311611316575b50505091909252505081546001818101845560009384526020938490208351600c9093020191825583830151805193949293611378939285019291909101906117a5565b506040820151600282015560608201516003820180546001600160a01b039092166001600160a01b03199092169190911790556080820151600482015560a0820151600582015560c0820151600682015560e08201516007820155610100808301516008830155610120830151600983018054610140860151610160870151610180880151151563010000000263ff00000019911515620100000262ff00001993151590970261ff001996151560ff199095169490941795909516929092171693909317929092161790556101a0820151805161145f91600b840191602090910190611823565b5050600554604080519182526020820185905280513393507f88a8cc420850546d3cf2665b19ede58f1fbead3a8c83f87bcc60e26f70f28d6b9281900390910190a250600192915050565b6001546001600160a01b03163190565b6000600a82116114fb5760405162461bcd60e51b815260040180806020018281038252602681526020018061196a6026913960400191505060405180910390fd5b50336000818152602081905260409020805492909201808355600190920180546001600160a01b031916909117905590565b33600060ff8316600281111561153f57fe5b905060006004858154811061155057fe5b600091825260208083206001600160a01b0387168452600a600c90930201919091019052604090205460ff16600281111561158757fe5b146115c35760405162461bcd60e51b815260040180806020018281038252603e81526020018061192c603e913960400191505060405180910390fd5b60018160028111156115d157fe5b1415611605576001600485815481106115e657fe5b600091825260209091206006600c90920201018054909101905561119c565b600281600281111561161357fe5b141561119c5760016004858154811061162857fe5b600091825260209091206008600c9092020101805490910190556040805160ff8516815290516001600160a01b03841691339187917f29bf0061f2faa9daa482f061b116195432d435536d8af4ae6b3c5dd78223679b919081900360200190a450505050565b6000806004838154811061169e57fe5b90600052602060002090600c02016002015490506000600484815481106116c157fe5b90600052602060002090600c0201600b018054905090508082101561172d576040805162461bcd60e51b815260206004820152601d60248201527f5468652070726f706f73616c20776f72746820697320746f6f206c6f77000000604482015290519081900360640190fd5b80828161173657fe5b04949350505050565b600180546001600160a01b031660009081526020819052604080822080543490810190915533808452919092208054909201825590820180546001600160a01b031916909117905590565b6001600160a01b031660009081526020819052604090205490565b828054600181600116156101000203166002900490600052602060002090601f016020900481019282601f106117e657805160ff1916838001178555611813565b82800160010185558215611813579182015b828111156118135782518255916020019190600101906117f8565b5061181f929150611884565b5090565b828054828255906000526020600020908101928215611878579160200282015b8281111561187857825182546001600160a01b0319166001600160a01b03909116178255602090920191600190910190611843565b5061181f92915061189e565b61120b91905b8082111561181f576000815560010161188a565b61120b91905b8082111561181f5780546001600160a01b03191681556001016118a456fe4d6f6c6f63683a3a7375626d6974566f7465202d20766f7465206d7573742062652065697468657220596573206f72204e6f596f752063616e6e6f7420706572666f726d207468697320616374696f6e7320617320796f7520617265206e6f742061206d656d6265724d6f6c6f63683a3a7375626d6974566f7465202d206d656d6265722068617320616c726561647920766f746564206f6e20746869732070726f706f73616c4465706f736974207368616c6c2062652067726561746572207468616e20313020457468657243686169726d616e20646f6573206e6f7420686176652066756e6473207769746820a2646970667358221220121a551e9e248d16b1253d4d373491913b9f3b61bac8c3cc98d56c481ae54f6964736f6c63430006060033",
  "immutableReferences": {},
  "source": "pragma solidity >=0.4.22 <0.7.0;\n\nimport \"./utilities.sol\";\n\ncontract crowdao is utilities{\n    \n// constructor initialising the Chairperson and proposalIndex.\nconstructor() public {\n        chairperson = address(this);\n        proposalIndex = 0;\n        accounts[chairperson].balance = 0;\n        accounts[chairperson].maddress = payable(chairperson);\n}\n\n\n        \n// Bank and Amount transfer in ETH \n\n\n        function selfAdd(uint256 value) external returns(uint256) {\n                require(value > 10, \"Deposit shall be greater than 10 Ether\");\n                 /*\n                      Function Adds the caller only if he is giving depositing greater than 10 ETH in the network.\n                      takes Proposal string and proposal worth value as input.\n                */\n                accounts[msg.sender].balance += value;\n                accounts[msg.sender].maddress = payable(msg.sender);\n                return accounts[msg.sender].balance;\n            }\n            \n        function invest() external payable returns(bool) {\n                //adding balance in chairperson account in accounts\n                accounts[chairperson].balance += msg.value;\n                //adding balance in self account in accounts\n                accounts[msg.sender].balance += msg.value;\n                //adding address as a member\n                accounts[msg.sender].maddress = payable(msg.sender);\n               return true;\n            } \n            \n        function BalanceOfchairperson() external view returns(uint256){\n                return chairperson.balance;\n            }\n        \n        function BalanceOfmember(address payable _member) external view returns(uint){\n                return address(_member).balance;\n            }\n            \n        function getBalance(address addr) external view returns (uint256) {\n                return accounts[addr].balance;\n            }\n        function Transfer(address payable  _to,  uint _value)  public  payable{\n                require(accounts[chairperson].balance >= _value,\"Chairman does not have funds with \");\n                     accounts[chairperson].balance -= _value;\n                    accounts[_to].balance -= _value;\n                    _to.transfer(_value);\n            }        \n        function ProposalFundBlock(uint256 _proposalIndex, address memaddr) public  \n            {\n                uint256 value =  ComputeTotalShare(_proposalIndex);\n                Transfer(payable(memaddr),value);\n                accounts[memaddr].balance -= value;\n                \n            }\n            \n                function refundFunds(uint256 proposalIndex) public returns(bool)\n                {\n                    address payable sender = proposals[proposalIndex].proposer;\n                    uint256 value =  proposals[proposalIndex].proposalvalue;\n                    uint256 len = proposals[proposalIndex].votedMembers.length;\n                        if(len > 0){\n                            for (uint i=0; i<len-1; i++) {\n                                if(accounts[sender].balance >= value) {\n                                accounts[sender].balance -= value;\n                                accounts[proposals[proposalIndex].votedMembers[i]].balance += value;\n                            }  \n                        \n                        }\n                    \n                    }\n                    return true;\n                }\n            \n            modifier CheckBalance{\n                require(accounts[msg.sender].balance >= 10, \"You cannot perform this actions as you have insufficient balance\");\n                _;\n            }\n        \n            modifier onlyAcccountHolder {\n                require(accounts[msg.sender].maddress == msg.sender, \"You cannot perform this actions as you are not a member\");\n                _;\n            }\n            modifier checkProposalValue(uint256 value){\n                //checkProposalValue(_proposalworth) \n                require(value >  accounts[chairperson].balance, \"You cannot perform this actions as you are not a member\");\n                _;\n            }\n            \nfunction addProposal(string memory _proposalname , uint256  _proposalworth) onlyAcccountHolder public returns(bool){\n        /*\n              function Adds Proposals based on the condition of the only if he is a member of the network.\n              takes Proposal string and proposal worth value as input.\n        */\n     proposalIndex +=1;\n     proposals.push(Proposal({uid : proposalIndex,\n                              name: _proposalname,\n                              proposalvalue: _proposalworth,\n                              startingPeriod: now,\n                              yesVotes:0,\n                              yesPostVotes:0,\n                              noVotes:0,\n                              noPostVotes:0,\n                              processed:false,\n                              didPass:false,\n                              aborted:false,\n                              didfinalPass:false,\n                              proposer:payable(msg.sender),\n                              votedMembers: arr\n                    \n     }));  \n     emit SubmitProposal(proposalIndex,msg.sender,_proposalworth);\n     return true;\n    }\n    \nfunction proposalCount() public view returns(uint) { return proposals.length; }\n\n\nfunction FetchProposalIndex(string memory _proposalname , uint256  _proposalworth) public view returns (uint256){\n        \n        for (uint i=0; i<proposals.length; i++) {\n            if(keccak256(abi.encodePacked(proposals[i].name)) == keccak256(abi.encodePacked(_proposalname)) && proposals[i].proposalvalue == _proposalworth)\n            return(proposals[i].uid);\n            }\n    }\n\n    function getProposalByIndex(uint256  _index) public view returns (uint256,  string memory, uint256, uint256, uint256, bool, address){\n        \n        \n            return(proposals[_index].uid , proposals[_index].name, proposals[_index].proposalvalue, proposals[_index].yesVotes, proposals[_index].noVotes, proposals[_index].didPass, proposals[_index].proposer);\n            \n    }\n\n    function getProposalCount() public view returns(uint count) \n    { return proposals.length;\n    }\n\n    function hasProposalPassed(uint256 _proposalIndex) public returns (bool){\n     // This function checks if the particular proposal passed or fail by 60% percentage cutoff.     \n     uint256 sum_votes = proposals[_proposalIndex].yesVotes + proposals[_proposalIndex].noVotes;\n     if((proposals[_proposalIndex].yesVotes/ sum_votes)* 100 >= (60))\n        {proposals[_proposalIndex].didPass = true; \n        return true;}\n     else\n     {  proposals[_proposalIndex].didPass = false;\n        return false;}\n    }\n    \n    function hasVotingPeriodExpired(uint256 _proposalIndex) public view returns (bool) {\n        //This function checks for the voting period expiration for the proposal for 20 sec\n        uint256 start = proposals[_proposalIndex].startingPeriod;\n        return (now - start) >= 20;\n    }\n    \n    function ComputeTotalShare(uint256 _proposalIndex) public view returns(uint256){\n        \n        uint256 worth = proposals[_proposalIndex].proposalvalue;\n        uint256 totalvote = proposals[_proposalIndex].votedMembers.length;\n        require(worth >= totalvote,\"The proposal worth is too low\");\n        \n        return worth/totalvote;\n        \n    }\n    \n     \n\n    function submitVote(uint256 proposalIndex, uint8 uintVote) public {\n    //    Member storage member = members[msg.sender];\n         address memberAddress = msg.sender;\n    //     require(uintVote < 3, \"Moloch::submitVote - uintVote must be less than 3\");\n        Vote vote = Vote(uintVote);\n\n    //     //require(getCurrentPeriod() >= proposal.startingPeriod, \"Moloch::submitVote - voting period has not started\");\n    //     //require(!hasVotingPeriodExpired(proposal.startingPeriod), \"Moloch::submitVote - proposal voting period has expired\");\n         require(proposals[proposalIndex].votesByMember[memberAddress] == Vote.Null, \"Moloch::submitVote - member has already voted on this proposal\");\n         require(vote == Vote.Yes || vote == Vote.No, \"Moloch::submitVote - vote must be either Yes or No\");\n        // store vote\n         proposals[proposalIndex].votesByMember[memberAddress] = vote;\n         proposals[proposalIndex].votedMembers.push(memberAddress);\n\n    //    Adding counts to respective Yes or No\n         if (vote == Vote.Yes) {\n            proposals[proposalIndex].yesVotes  += 1;\n\n         } else if (vote == Vote.No) {\n            proposals[proposalIndex].noVotes += 1;\n         }\n         ProposalFundBlock(proposalIndex,msg.sender);\n         emit SubmitVote(proposalIndex, msg.sender, memberAddress, uintVote);\n     }\n    \n\n    function submitPassedVote(uint256 proposalIndex, uint8 uintVote) public {\n        //This function \n         address memberAddress = msg.sender;\n         Vote postVote = Vote(uintVote);\n         require(proposals[proposalIndex].votesByMember[memberAddress] == Vote.Null, \"Moloch::submitVote - member has already voted on this proposal\");\n         \n\n    //    Adding counts to respective Yes or No\n         if (postVote == Vote.Yes) {\n            proposals[proposalIndex].yesPostVotes  += 1;\n\n         } else if (postVote == Vote.No) {\n            proposals[proposalIndex].noPostVotes += 1;\n         }\n         \n         emit SubmitVote(proposalIndex, msg.sender, memberAddress, uintVote);\n     }\n\n     \n    \n   \n\n    \n}",
  "sourcePath": "/home/teja/Documents/BLCON/crowdao/contracts/crowdao.sol",
  "compiler": {
    "name": "solc",
    "version": "0.6.6+commit.6c089d02.Emscripten.clang"
  },
  "schemaVersion": "3.1.0",
  "updatedAt": "2020-05-10T20:51:10.269Z",
  "networkType": "ethereum",
  "devdoc": {
    "methods": {}
  },
  "userdoc": {
    "methods": {}
  }
}