{
  "contractName": "crowdao",
  "abi": [
    {
      "inputs": [],
      "stateMutability": "nonpayable",
      "type": "constructor"
    },
    {
      "anonymous": false,
      "inputs": [
        {
          "indexed": true,
          "internalType": "uint256",
          "name": "proposalIndex",
          "type": "uint256"
        },
        {
          "indexed": true,
          "internalType": "address",
          "name": "applicant",
          "type": "address"
        },
        {
          "indexed": true,
          "internalType": "address",
          "name": "memberAddress",
          "type": "address"
        },
        {
          "indexed": false,
          "internalType": "uint256",
          "name": "tokenTribute",
          "type": "uint256"
        },
        {
          "indexed": false,
          "internalType": "uint256",
          "name": "sharesRequested",
          "type": "uint256"
        },
        {
          "indexed": false,
          "internalType": "bool",
          "name": "didPass",
          "type": "bool"
        }
      ],
      "name": "ProcessProposal",
      "type": "event"
    },
    {
      "anonymous": false,
      "inputs": [
        {
          "indexed": false,
          "internalType": "uint256",
          "name": "proposalIndex",
          "type": "uint256"
        },
        {
          "indexed": true,
          "internalType": "address",
          "name": "proposer",
          "type": "address"
        },
        {
          "indexed": false,
          "internalType": "uint256",
          "name": "totalworth",
          "type": "uint256"
        }
      ],
      "name": "SubmitProposal",
      "type": "event"
    },
    {
      "anonymous": false,
      "inputs": [
        {
          "indexed": true,
          "internalType": "uint256",
          "name": "proposalIndex",
          "type": "uint256"
        },
        {
          "indexed": true,
          "internalType": "address",
          "name": "delegateKey",
          "type": "address"
        },
        {
          "indexed": true,
          "internalType": "address",
          "name": "memberAddress",
          "type": "address"
        },
        {
          "indexed": false,
          "internalType": "uint8",
          "name": "uintVote",
          "type": "uint8"
        }
      ],
      "name": "SubmitVote",
      "type": "event"
    },
    {
      "inputs": [
        {
          "internalType": "uint256",
          "name": "",
          "type": "uint256"
        }
      ],
      "name": "arr",
      "outputs": [
        {
          "internalType": "address",
          "name": "",
          "type": "address"
        }
      ],
      "stateMutability": "view",
      "type": "function",
      "constant": true
    },
    {
      "inputs": [],
      "name": "chairperson",
      "outputs": [
        {
          "internalType": "address",
          "name": "",
          "type": "address"
        }
      ],
      "stateMutability": "view",
      "type": "function",
      "constant": true
    },
    {
      "inputs": [
        {
          "internalType": "uint256",
          "name": "",
          "type": "uint256"
        }
      ],
      "name": "proposals",
      "outputs": [
        {
          "internalType": "uint256",
          "name": "uid",
          "type": "uint256"
        },
        {
          "internalType": "string",
          "name": "name",
          "type": "string"
        },
        {
          "internalType": "uint256",
          "name": "proposalvalue",
          "type": "uint256"
        },
        {
          "internalType": "address payable",
          "name": "proposer",
          "type": "address"
        },
        {
          "internalType": "uint256",
          "name": "startingPeriod",
          "type": "uint256"
        },
        {
          "internalType": "uint256",
          "name": "startingPeriodFinal",
          "type": "uint256"
        },
        {
          "internalType": "uint256",
          "name": "yesVotes",
          "type": "uint256"
        },
        {
          "internalType": "uint256",
          "name": "yesPostVotes",
          "type": "uint256"
        },
        {
          "internalType": "uint256",
          "name": "noVotes",
          "type": "uint256"
        },
        {
          "internalType": "uint256",
          "name": "noPostVotes",
          "type": "uint256"
        },
        {
          "internalType": "bool",
          "name": "processed",
          "type": "bool"
        },
        {
          "internalType": "bool",
          "name": "didPass",
          "type": "bool"
        },
        {
          "internalType": "bool",
          "name": "didfinalPass",
          "type": "bool"
        },
        {
          "internalType": "bool",
          "name": "aborted",
          "type": "bool"
        }
      ],
      "stateMutability": "view",
      "type": "function",
      "constant": true
    },
    {
      "inputs": [
        {
          "internalType": "address",
          "name": "",
          "type": "address"
        }
      ],
      "name": "voters",
      "outputs": [
        {
          "internalType": "bool",
          "name": "voted",
          "type": "bool"
        },
        {
          "internalType": "uint256",
          "name": "vote",
          "type": "uint256"
        }
      ],
      "stateMutability": "view",
      "type": "function",
      "constant": true
    },
    {
      "inputs": [
        {
          "internalType": "uint256",
          "name": "value",
          "type": "uint256"
        }
      ],
      "name": "selfAdd",
      "outputs": [
        {
          "internalType": "uint256",
          "name": "",
          "type": "uint256"
        }
      ],
      "stateMutability": "nonpayable",
      "type": "function"
    },
    {
      "inputs": [],
      "name": "invest",
      "outputs": [
        {
          "internalType": "bool",
          "name": "",
          "type": "bool"
        }
      ],
      "stateMutability": "payable",
      "type": "function",
      "payable": true
    },
    {
      "inputs": [],
      "name": "BalanceOfchairperson",
      "outputs": [
        {
          "internalType": "uint256",
          "name": "",
          "type": "uint256"
        }
      ],
      "stateMutability": "view",
      "type": "function",
      "constant": true
    },
    {
      "inputs": [
        {
          "internalType": "address payable",
          "name": "_member",
          "type": "address"
        }
      ],
      "name": "MembersWalletBalance",
      "outputs": [
        {
          "internalType": "uint256",
          "name": "",
          "type": "uint256"
        }
      ],
      "stateMutability": "view",
      "type": "function",
      "constant": true
    },
    {
      "inputs": [
        {
          "internalType": "address",
          "name": "addr",
          "type": "address"
        }
      ],
      "name": "getBalance",
      "outputs": [
        {
          "internalType": "uint256",
          "name": "",
          "type": "uint256"
        }
      ],
      "stateMutability": "view",
      "type": "function",
      "constant": true
    },
    {
      "inputs": [
        {
          "internalType": "address payable",
          "name": "_to",
          "type": "address"
        },
        {
          "internalType": "uint256",
          "name": "_value",
          "type": "uint256"
        }
      ],
      "name": "Transfer",
      "outputs": [],
      "stateMutability": "payable",
      "type": "function",
      "payable": true
    },
    {
      "inputs": [
        {
          "internalType": "uint256",
          "name": "_proposalIndex",
          "type": "uint256"
        }
      ],
      "name": "ProposalFundBlock",
      "outputs": [],
      "stateMutability": "nonpayable",
      "type": "function"
    },
    {
      "inputs": [
        {
          "internalType": "uint256",
          "name": "_proposalIndex",
          "type": "uint256"
        }
      ],
      "name": "isProposer",
      "outputs": [
        {
          "internalType": "bool",
          "name": "",
          "type": "bool"
        }
      ],
      "stateMutability": "view",
      "type": "function",
      "constant": true
    },
    {
      "inputs": [
        {
          "internalType": "uint256",
          "name": "proposalIndex",
          "type": "uint256"
        }
      ],
      "name": "refundFunds",
      "outputs": [
        {
          "internalType": "bool",
          "name": "",
          "type": "bool"
        }
      ],
      "stateMutability": "nonpayable",
      "type": "function"
    },
    {
      "inputs": [
        {
          "internalType": "string",
          "name": "_proposalname",
          "type": "string"
        },
        {
          "internalType": "uint256",
          "name": "_proposalworth",
          "type": "uint256"
        }
      ],
      "name": "addProposal",
      "outputs": [
        {
          "internalType": "bool",
          "name": "",
          "type": "bool"
        }
      ],
      "stateMutability": "nonpayable",
      "type": "function"
    },
    {
      "inputs": [],
      "name": "getProposalCount",
      "outputs": [
        {
          "internalType": "uint256",
          "name": "",
          "type": "uint256"
        }
      ],
      "stateMutability": "view",
      "type": "function",
      "constant": true
    },
    {
      "inputs": [
        {
          "internalType": "uint256",
          "name": "_proposalIndex",
          "type": "uint256"
        }
      ],
      "name": "didProposalPass",
      "outputs": [
        {
          "internalType": "bool",
          "name": "",
          "type": "bool"
        }
      ],
      "stateMutability": "view",
      "type": "function",
      "constant": true
    },
    {
      "inputs": [
        {
          "internalType": "uint256",
          "name": "_proposalIndex",
          "type": "uint256"
        }
      ],
      "name": "didProposalFinalPass",
      "outputs": [
        {
          "internalType": "bool",
          "name": "",
          "type": "bool"
        }
      ],
      "stateMutability": "view",
      "type": "function",
      "constant": true
    },
    {
      "inputs": [
        {
          "internalType": "uint256",
          "name": "_proposalIndex",
          "type": "uint256"
        }
      ],
      "name": "didProposalProcessed",
      "outputs": [
        {
          "internalType": "bool",
          "name": "",
          "type": "bool"
        }
      ],
      "stateMutability": "view",
      "type": "function",
      "constant": true
    },
    {
      "inputs": [
        {
          "internalType": "uint256",
          "name": "_proposalIndex",
          "type": "uint256"
        }
      ],
      "name": "didProposalAborted",
      "outputs": [
        {
          "internalType": "bool",
          "name": "",
          "type": "bool"
        }
      ],
      "stateMutability": "view",
      "type": "function",
      "constant": true
    },
    {
      "inputs": [
        {
          "internalType": "uint256",
          "name": "_proposalIndex",
          "type": "uint256"
        }
      ],
      "name": "fetchProposalShare",
      "outputs": [
        {
          "internalType": "uint256",
          "name": "",
          "type": "uint256"
        }
      ],
      "stateMutability": "view",
      "type": "function",
      "constant": true
    },
    {
      "inputs": [
        {
          "internalType": "uint256",
          "name": "_index",
          "type": "uint256"
        }
      ],
      "name": "getProposalByIndex",
      "outputs": [
        {
          "internalType": "uint256",
          "name": "",
          "type": "uint256"
        },
        {
          "internalType": "string",
          "name": "",
          "type": "string"
        },
        {
          "internalType": "uint256",
          "name": "",
          "type": "uint256"
        },
        {
          "internalType": "uint256",
          "name": "",
          "type": "uint256"
        },
        {
          "internalType": "uint256",
          "name": "",
          "type": "uint256"
        },
        {
          "internalType": "bool",
          "name": "",
          "type": "bool"
        },
        {
          "internalType": "address",
          "name": "",
          "type": "address"
        }
      ],
      "stateMutability": "view",
      "type": "function",
      "constant": true
    },
    {
      "inputs": [
        {
          "internalType": "uint256",
          "name": "_index",
          "type": "uint256"
        }
      ],
      "name": "getProposalByIndex2",
      "outputs": [
        {
          "internalType": "uint256",
          "name": "",
          "type": "uint256"
        },
        {
          "internalType": "string",
          "name": "",
          "type": "string"
        },
        {
          "internalType": "uint256",
          "name": "",
          "type": "uint256"
        },
        {
          "internalType": "bool",
          "name": "",
          "type": "bool"
        },
        {
          "internalType": "uint256",
          "name": "",
          "type": "uint256"
        },
        {
          "internalType": "uint256",
          "name": "",
          "type": "uint256"
        },
        {
          "internalType": "address",
          "name": "",
          "type": "address"
        }
      ],
      "stateMutability": "view",
      "type": "function",
      "constant": true
    },
    {
      "inputs": [
        {
          "internalType": "uint256",
          "name": "_proposalIndex",
          "type": "uint256"
        }
      ],
      "name": "hasProposalPassed",
      "outputs": [
        {
          "internalType": "bool",
          "name": "",
          "type": "bool"
        }
      ],
      "stateMutability": "nonpayable",
      "type": "function"
    },
    {
      "inputs": [
        {
          "internalType": "uint256",
          "name": "_proposalIndex",
          "type": "uint256"
        }
      ],
      "name": "hasProposalPassedFinal",
      "outputs": [
        {
          "internalType": "bool",
          "name": "",
          "type": "bool"
        }
      ],
      "stateMutability": "nonpayable",
      "type": "function"
    },
    {
      "inputs": [],
      "name": "fetchBlockNumber",
      "outputs": [
        {
          "internalType": "uint256",
          "name": "",
          "type": "uint256"
        }
      ],
      "stateMutability": "view",
      "type": "function",
      "constant": true
    },
    {
      "inputs": [
        {
          "internalType": "uint256",
          "name": "_proposalIndex",
          "type": "uint256"
        }
      ],
      "name": "hasVotingPeriodExpired",
      "outputs": [
        {
          "internalType": "bool",
          "name": "",
          "type": "bool"
        }
      ],
      "stateMutability": "view",
      "type": "function",
      "constant": true
    },
    {
      "inputs": [
        {
          "internalType": "uint256",
          "name": "_proposalIndex",
          "type": "uint256"
        }
      ],
      "name": "hasVotingPeriodExpiredFinal",
      "outputs": [
        {
          "internalType": "bool",
          "name": "",
          "type": "bool"
        }
      ],
      "stateMutability": "view",
      "type": "function",
      "constant": true
    },
    {
      "inputs": [
        {
          "internalType": "uint256",
          "name": "_proposalIndex",
          "type": "uint256"
        }
      ],
      "name": "ComputeTotalShare",
      "outputs": [
        {
          "internalType": "uint256",
          "name": "",
          "type": "uint256"
        }
      ],
      "stateMutability": "view",
      "type": "function",
      "constant": true
    },
    {
      "inputs": [
        {
          "internalType": "uint256",
          "name": "proposalIndex",
          "type": "uint256"
        },
        {
          "internalType": "uint8",
          "name": "uintVote",
          "type": "uint8"
        }
      ],
      "name": "submitVote",
      "outputs": [],
      "stateMutability": "nonpayable",
      "type": "function"
    },
    {
      "inputs": [
        {
          "internalType": "uint256",
          "name": "p_Index",
          "type": "uint256"
        },
        {
          "internalType": "uint256",
          "name": "voteIndex",
          "type": "uint256"
        }
      ],
      "name": "proposerCompleteVote",
      "outputs": [],
      "stateMutability": "nonpayable",
      "type": "function"
    },
    {
      "inputs": [
        {
          "internalType": "uint256",
          "name": "proposalIndex",
          "type": "uint256"
        },
        {
          "internalType": "uint8",
          "name": "uintVote",
          "type": "uint8"
        }
      ],
      "name": "submitPassedVote",
      "outputs": [],
      "stateMutability": "nonpayable",
      "type": "function"
    }
  ],
  "bytecode": "0x608060405234801561001057600080fd5b50600180546001600160a01b03199081163017808355600060058190556001600160a01b03918216815260208190526040808220829055845490921680825291902090920180549091169091179055611f108061006e6000396000f3fe6080604052600436106101d85760003560e01c80639ea35b3f11610102578063e41e2d8411610095578063e8b5e51f11610064578063e8b5e51f14610931578063ecfbb76414610939578063f3289ee61461094e578063f8b2cb4f14610978576101d8565b8063e41e2d8414610880578063e56cf0d4146108aa578063e6a9da23146108dd578063e88bd49a14610907576101d8565b8063c208abdc116100d1578063c208abdc14610762578063c565782014610817578063cebf3b1a1461082c578063d15b0a4d14610856576101d8565b80639ea35b3f146106ab578063a3ec138d146106d5578063c08cc02d14610723578063c1072bdb14610738576101d8565b806337d1d3891161017a57806371e5ee5f1161014957806371e5ee5f146105df5780637de33c1d146106095780639425a4761461064e57806399653fbe14610678576101d8565b806337d1d389146104ca57806361af2ad31461055f5780636414b6a11461058957806369ca02dd146105b3576101d8565b80631ffff33b116101b65780631ffff33b146103645780632d36bd871461043d5780632e4176cf1461046f57806331f906a0146104a0576101d8565b8063013cf08b146101dd57806306e65f48146102fc57806315f1bbfe1461033a575b600080fd5b3480156101e957600080fd5b506102076004803603602081101561020057600080fd5b50356109ab565b604051808f8152602001806020018e81526020018d6001600160a01b03166001600160a01b031681526020018c81526020018b81526020018a81526020018981526020018881526020018781526020018615151515815260200185151515158152602001841515151581526020018315151515815260200182810382528f818151815260200191508051906020019080838360005b838110156102b457818101518382015260200161029c565b50505050905090810190601f1680156102e15780820380516001836020036101000a031916815260200191505b509f5050505050505050505050505050505060405180910390f35b34801561030857600080fd5b506103266004803603602081101561031f57600080fd5b5035610ad8565b604080519115158252519081900360200190f35b34801561034657600080fd5b506103266004803603602081101561035d57600080fd5b5035610b17565b34801561037057600080fd5b5061038e6004803603602081101561038757600080fd5b5035610beb565b6040805188815290810186905284151560608201526080810184905260a081018390526001600160a01b03821660c082015260e0602080830182815289519284019290925288516101008401918a019080838360005b838110156103fc5781810151838201526020016103e4565b50505050905090810190601f1680156104295780820380516001836020036101000a031916815260200191505b509850505050505050505060405180910390f35b34801561044957600080fd5b5061046d6004803603604081101561046057600080fd5b5080359060200135610d92565b005b34801561047b57600080fd5b50610484610ec1565b604080516001600160a01b039092168252519081900360200190f35b3480156104ac57600080fd5b50610326600480360360208110156104c357600080fd5b5035610ed0565b3480156104d657600080fd5b506104f4600480360360208110156104ed57600080fd5b5035610f03565b60408051888152908101869052606081018590526080810184905282151560a08201526001600160a01b03821660c082015260e0602080830182815289519284019290925288516101008401918a0190808383600083156103fc5781810151838201526020016103e4565b34801561056b57600080fd5b5061046d6004803603602081101561058257600080fd5b5035610fe2565b34801561059557600080fd5b50610326600480360360208110156105ac57600080fd5b50356110e7565b61046d600480360360408110156105c957600080fd5b506001600160a01b0381351690602001356111ec565b3480156105eb57600080fd5b506104846004803603602081101561060257600080fd5b5035611295565b34801561061557600080fd5b5061063c6004803603602081101561062c57600080fd5b50356001600160a01b03166112bc565b60408051918252519081900360200190f35b34801561065a57600080fd5b506103266004803603602081101561067157600080fd5b50356112c9565b34801561068457600080fd5b5061046d6004803603604081101561069b57600080fd5b508035906020013560ff166112fc565b3480156106b757600080fd5b50610326600480360360208110156106ce57600080fd5b5035611558565b3480156106e157600080fd5b50610708600480360360208110156106f857600080fd5b50356001600160a01b0316611584565b60408051921515835260208301919091528051918290030190f35b34801561072f57600080fd5b5061063c6115a3565b34801561074457600080fd5b506103266004803603602081101561075b57600080fd5b50356115aa565b34801561076e57600080fd5b506103266004803603604081101561078557600080fd5b8101906020810181356401000000008111156107a057600080fd5b8201836020820111156107b257600080fd5b803590602001918460018302840111640100000000831117156107d457600080fd5b91908080601f01602080910402602001604051908101604052809392919081815260200183838082843760009201919091525092955050913592506115dc915050565b34801561082357600080fd5b5061063c611895565b34801561083857600080fd5b506103266004803603602081101561084f57600080fd5b50356118a5565b34801561086257600080fd5b5061063c6004803603602081101561087957600080fd5b50356119fc565b34801561088c57600080fd5b5061063c600480360360208110156108a357600080fd5b5035611a6f565b3480156108b657600080fd5b5061046d600480360360408110156108cd57600080fd5b508035906020013560ff16611a80565b3480156108e957600080fd5b5061063c6004803603602081101561090057600080fd5b5035611b5f565b34801561091357600080fd5b506103266004803603602081101561092a57600080fd5b5035611c10565b610326611c41565b34801561094557600080fd5b5061063c611c8c565b34801561095a57600080fd5b506103266004803603602081101561097157600080fd5b5035611c90565b34801561098457600080fd5b5061063c6004803603602081101561099b57600080fd5b50356001600160a01b0316611cc3565b600481815481106109b857fe5b90600052602060002090600d0201600091509050806000015490806001018054600181600116156101000203166002900480601f016020809104026020016040519081016040528092919081815260200182805460018160011615610100020316600290048015610a6a5780601f10610a3f57610100808354040283529160200191610a6a565b820191906000526020600020905b815481529060010190602001808311610a4d57829003601f168201915b50505060028401546003850154600486015460058701546006880154600789015460088a015460098b0154600a909b0154999a96996001600160a01b0390961698509396509194909391929160ff80821691610100810482169162010000820481169163010000009004168e565b6000336001600160a01b031660048381548110610af157fe5b600091825260209091206003600d9092020101546001600160a01b03161490505b919050565b600080610b2383611b5f565b9050600060048481548110610b3457fe5b60009182526020909120600c600d90920201015490508015610be15760005b600182038111610bdf576001546001600160a01b03166000908152602081905260409020548311610bd7578260008060048881548110610b8f57fe5b90600052602060002090600d0201600c018481548110610bab57fe5b60009182526020808320909101546001600160a01b031683528201929092526040019020805490910190555b600101610b53565b505b5060019392505050565b60006060600080600080600060048881548110610c0457fe5b90600052602060002090600d02016000015460048981548110610c2357fe5b90600052602060002090600d020160010160048a81548110610c4157fe5b90600052602060002090600d02016002015460048b81548110610c6057fe5b90600052602060002090600d0201600a0160009054906101000a900460ff1660048c81548110610c8c57fe5b90600052602060002090600d02016007015460048d81548110610cab57fe5b90600052602060002090600d02016009015460048e81548110610cca57fe5b60009182526020918290206003600d909202010154865460408051601f600260001960018616156101000201909416939093049283018590048502810185019091528181526001600160a01b0390921692889190830182828015610d6f5780601f10610d4457610100808354040283529160200191610d6f565b820191906000526020600020905b815481529060010190602001808311610d5257829003601f168201915b505050505095508090509650965096509650965096509650919395979092949650565b8060011415610e2b57600160048381548110610daa57fe5b600091825260208220600d9190910201600a01805460ff1916921515929092179091556004805484908110610ddb57fe5b90600052602060002090600d0201600a0160036101000a81548160ff0219169083151502179055504260048381548110610e1157fe5b90600052602060002090600d020160050181905550610ebd565b600160048381548110610e3a57fe5b90600052602060002090600d0201600a0160036101000a81548160ff021916908315150217905550600060048381548110610e7157fe5b90600052602060002090600d0201600a0160006101000a81548160ff0219169083151502179055504260048381548110610ea757fe5b90600052602060002090600d0201600501819055505b5050565b6001546001600160a01b031681565b60008060048381548110610ee057fe5b90600052602060002090600d0201600501549050603c8142031015915050919050565b60006060600080600080600060048881548110610f1c57fe5b90600052602060002090600d02016000015460048981548110610f3b57fe5b90600052602060002090600d020160010160048a81548110610f5957fe5b90600052602060002090600d02016002015460048b81548110610f7857fe5b90600052602060002090600d02016006015460048c81548110610f9757fe5b90600052602060002090600d02016008015460048d81548110610fb657fe5b90600052602060002090600d0201600a0160019054906101000a900460ff1660048e81548110610cca57fe5b6000610fed82611b5f565b9050600060048381548110610ffe57fe5b60009182526020909120600c600d909202010154905080156110e25760005b6001820381116110e057826000806004878154811061103857fe5b90600052602060002090600d0201600c01848154811061105457fe5b60009182526020808320909101546001600160a01b03168352820192909252604001902054106110d857826000806004878154811061108f57fe5b90600052602060002090600d0201600c0184815481106110ab57fe5b60009182526020808320909101546001600160a01b03168352820192909252604001902080549190910390555b60010161101d565b505b505050565b6000600482815481106110f657fe5b90600052602060002090600d0201600801546004838154811061111557fe5b90600052602060002090600d02016006015411156111755760016004838154811061113c57fe5b90600052602060002090600d0201600a0160016101000a81548160ff02191690831515021790555061116d82610fe2565b506001610b12565b60006004838154811061118457fe5b90600052602060002090600d0201600a0160016101000a81548160ff0219169083151502179055506001600483815481106111bb57fe5b90600052602060002090600d0201600a0160036101000a81548160ff02191690831515021790555060009050610b12565b6001546001600160a01b03166000908152602081905260409020548111156112455760405162461bcd60e51b8152600401808060200182810382526022815260200180611eb96022913960400191505060405180910390fd5b6001546001600160a01b0390811660009081526020819052604080822080548590039055519184169183156108fc0291849190818181858888f193505050501580156110e2573d6000803e3d6000fd5b600281815481106112a257fe5b6000918252602090912001546001600160a01b0316905081565b6001600160a01b03163190565b600080600483815481106112d957fe5b90600052602060002090600d0201600401549050603c8142031015915050919050565b33600060ff8316600281111561130e57fe5b905060006004858154811061131f57fe5b600091825260208083206001600160a01b0387168452600b600d90930201919091019052604090205460ff16600281111561135657fe5b146113925760405162461bcd60e51b8152600401808060200182810382526036815260200180611e5d6036913960400191505060405180910390fd5b60018160028111156113a057fe5b14806113b7575060028160028111156113b557fe5b145b6113f25760405162461bcd60e51b815260040180806020018281038252602a815260200180611e33602a913960400191505060405180910390fd5b806004858154811061140057fe5b600091825260208083206001600160a01b0387168452600b600d9093020191909101905260409020805460ff1916600183600281111561143c57fe5b02179055506004848154811061144e57fe5b60009182526020808320600d92909202909101600c01805460018082018355918452919092200180546001600160a01b0319166001600160a01b03851617905581600281111561149a57fe5b14156114ce576001600485815481106114af57fe5b600091825260209091206006600d90920201018054909101905561150c565b60028160028111156114dc57fe5b141561150c576001600485815481106114f157fe5b600091825260209091206008600d9092020101805490910190555b6040805160ff8516815290516001600160a01b03841691339187917f29bf0061f2faa9daa482f061b116195432d435536d8af4ae6b3c5dd78223679b919081900360200190a450505050565b60006004828154811061156757fe5b60009182526020909120600d90910201600a015460ff1692915050565b6003602052600090815260409020805460019091015460ff9091169082565b6004545b90565b6000600482815481106115b957fe5b60009182526020909120600d90910201600a015462010000900460ff1692915050565b3360008181526020819052604081206001015490916001600160a01b03909116146116385760405162461bcd60e51b8152600401808060200182810382526037815260200180611dfc6037913960400191505060405180910390fd5b6004604051806101e001604052806005548152602001858152602001848152602001336001600160a01b031681526020014281526020016000815260200160008152602001600081526020016000815260200160008152602001600015158152602001600015158152602001600015158152602001600015158152602001600280548060200260200160405190810160405280929190818152602001828054801561170c57602002820191906000526020600020905b81546001600160a01b031681526001909101906020018083116116ee575b50505091909252505081546001818101845560009384526020938490208351600d909302019182558383015180519394929361175093928501929190910190611cde565b506040820151600282015560608201516003820180546001600160a01b039092166001600160a01b03199092169190911790556080820151600482015560a0820151600582015560c0820151600682015560e082015160078201556101008083015160088301556101208301516009830155610140830151600a830180546101608601516101808701516101a0880151151563010000000263ff00000019911515620100000262ff00001993151590970261ff001996151560ff199095169490941795909516929092171693909317929092161790556101c0820151805161184291600c840191602090910190611d5c565b50506005805460010190819055604080519182526020820185905280513393507f88a8cc420850546d3cf2665b19ede58f1fbead3a8c83f87bcc60e26f70f28d6b9281900390910190a250600192915050565b6001546001600160a01b03163190565b6000600482815481106118b457fe5b90600052602060002090600d020160090154600483815481106118d357fe5b90600052602060002090600d020160070154111561197b576001600483815481106118fa57fe5b90600052602060002090600d0201600a0160026101000a81548160ff02191690831515021790555061116d6004838154811061193257fe5b90600052602060002090600d020160030160009054906101000a90046001600160a01b03166004848154811061196457fe5b90600052602060002090600d0201600201546111ec565b60006004838154811061198a57fe5b90600052602060002090600d0201600a0160026101000a81548160ff0219169083151502179055506001600483815481106119c157fe5b90600052602060002090600d0201600a0160036101000a81548160ff0219169083151502179055506119f282610b17565b5060009050610b12565b6000600a8211611a3d5760405162461bcd60e51b8152600401808060200182810382526026815260200180611e936026913960400191505060405180910390fd5b50336000818152602081905260409020805492909201808355600190920180546001600160a01b031916909117905590565b6000611a7a82611b5f565b92915050565b33600060ff83166002811115611a9257fe5b90506001816002811115611aa257fe5b1415611ad657600160048581548110611ab757fe5b600091825260209091206007600d90920201018054909101905561150c565b6002816002811115611ae457fe5b141561150c57600160048581548110611af957fe5b600091825260209091206009600d9092020101805490910190556040805160ff8516815290516001600160a01b03841691339187917f29bf0061f2faa9daa482f061b116195432d435536d8af4ae6b3c5dd78223679b919081900360200190a450505050565b60008060048381548110611b6f57fe5b90600052602060002090600d0201600201549050600060048481548110611b9257fe5b90600052602060002090600d0201600c0180549050905080821015611bfe576040805162461bcd60e51b815260206004820152601d60248201527f5468652070726f706f73616c20776f72746820697320746f6f206c6f77000000604482015290519081900360640190fd5b808281611c0757fe5b04949350505050565b600060048281548110611c1f57fe5b60009182526020909120600d90910201600a0154610100900460ff1692915050565b600180546001600160a01b031660009081526020819052604080822080543490810190915533808452919092208054909201825590820180546001600160a01b031916909117905590565b4390565b600060048281548110611c9f57fe5b60009182526020909120600d90910201600a01546301000000900460ff1692915050565b6001600160a01b031660009081526020819052604090205490565b828054600181600116156101000203166002900490600052602060002090601f016020900481019282601f10611d1f57805160ff1916838001178555611d4c565b82800160010185558215611d4c579182015b82811115611d4c578251825591602001919060010190611d31565b50611d58929150611dbd565b5090565b828054828255906000526020600020908101928215611db1579160200282015b82811115611db157825182546001600160a01b0319166001600160a01b03909116178255602090920191600190910190611d7c565b50611d58929150611dd7565b6115a791905b80821115611d585760008155600101611dc3565b6115a791905b80821115611d585780546001600160a01b0319168155600101611ddd56fe596f752063616e6e6f7420706572666f726d207468697320616374696f6e7320617320796f7520617265206e6f742061206d656d6265727375626d6974566f7465202d20766f7465206d7573742062652065697468657220596573206f72204e6f7375626d6974566f7465202d206d656d6265722068617320616c726561647920766f746564206f6e20746869732070726f706f73616c4465706f736974207368616c6c2062652067726561746572207468616e20313020457468657243686169726d616e20646f6573206e6f7420686176652066756e6473207769746820a2646970667358221220321b09aaf2d32af84172bb93fa4eaf3f0df5fbd6db4681348265fcf75a03b36564736f6c63430006060033",
  "immutableReferences": {},
  "source": "pragma solidity >=0.4.22 <0.7.0;\n\nimport \"./utilities.sol\";\n\ncontract crowdao is utilities{\n    \n// constructor initialising the Chairperson and proposalIndex.\nconstructor() public {\n        chairperson = address(this);\n        proposalIndex = 0;\n        accounts[chairperson].balance = 0;\n        accounts[chairperson].maddress = payable(chairperson);\n}\n\n\n        \n// Bank and Amount transfer in ETH \n\n\n        function selfAdd(uint256 value) external returns(uint256) {\n                require(value > 10, \"Deposit shall be greater than 10 Ether\");\n                 /*\n                      Function Adds the caller only if he is giving depositing greater than 10 ETH in the network.\n                      takes Proposal string and proposal worth value as input.\n                */\n                accounts[msg.sender].balance += value;\n                accounts[msg.sender].maddress = payable(msg.sender);\n                return accounts[msg.sender].balance;\n            }\n            \n        function invest() external payable returns(bool) {\n                //adding balance in chairperson account in accounts\n                accounts[chairperson].balance += msg.value;\n                //adding balance in self account in accounts\n                accounts[msg.sender].balance += msg.value;\n                //adding address as a member\n                accounts[msg.sender].maddress = payable(msg.sender);\n               return true;\n            } \n            \n        function BalanceOfchairperson() external view returns(uint256){\n                return chairperson.balance;\n            }\n        \n        function MembersWalletBalance(address payable _member) external view returns(uint){\n                return address(_member).balance;\n            }\n            \n        function getBalance(address addr) external view returns (uint256) {\n                return accounts[addr].balance;\n            }\n        function Transfer(address payable  _to,  uint _value)  public  payable{\n                require(accounts[chairperson].balance >= _value,\"Chairman does not have funds with \");\n                     accounts[chairperson].balance -= _value;\n                    //accounts[_to].balance += _value;\n                    _to.transfer(_value);\n            }        \n        function ProposalFundBlock(uint256 _proposalIndex) public  \n            {\n                uint256 value =  ComputeTotalShare(_proposalIndex);\n                uint256 len = proposals[_proposalIndex].votedMembers.length;\n                if(len > 0){\n                    for (uint i=0; i<=len-1; i++) {\n                        if(accounts[proposals[_proposalIndex].votedMembers[i]].balance >= value) {\n                        //accounts[chairperson].balance += value;\n                        accounts[proposals[_proposalIndex].votedMembers[i]].balance -= value;\n                    }  \n                }\n                }\n                \n            }\n        \n        function isProposer(uint256 _proposalIndex) public view returns(bool) {\n           return proposals[_proposalIndex].proposer == msg.sender;\n        }\n            \n        function refundFunds(uint256 proposalIndex) public returns(bool)\n        {\n            uint256 value = ComputeTotalShare(proposalIndex);\n            uint256 len = proposals[proposalIndex].votedMembers.length;\n                if(len > 0){\n                    for (uint i=0; i<=len-1; i++) {\n                        if(accounts[chairperson].balance >= value) {\n                        //accounts[chairperson].balance -= value;\n                        accounts[proposals[proposalIndex].votedMembers[i]].balance += value;\n                    }  \n                \n                }\n            \n            }\n            return true;\n        }\n    \n\n            \n            modifier CheckBalance{\n                require(accounts[msg.sender].balance >= 10, \"You cannot perform this actions as you have insufficient balance\");\n                _;\n            }\n        \n            modifier onlyAcccountHolder {\n                require(accounts[msg.sender].maddress == msg.sender, \"You cannot perform this actions as you are not a member\");\n                _;\n            }\n            modifier checkProposalValue(uint256 value){\n                //checkProposalValue(_proposalworth) \n                require(value >  accounts[chairperson].balance, \"You cannot perform this actions as you are not a member\");\n                _;\n            }\n            \nfunction addProposal(string memory _proposalname , uint256  _proposalworth) onlyAcccountHolder public returns(bool){\n        /*\n              function Adds Proposals based on the condition of the only if he is a member of the network.\n              takes Proposal string and proposal worth value as input.\n        */\n\n     proposals.push(Proposal({uid : proposalIndex,\n                              name: _proposalname,\n                              proposalvalue: _proposalworth,\n                              startingPeriod: now,\n                              startingPeriodFinal:0,\n                              yesVotes:0,\n                              yesPostVotes:0,\n                              noVotes:0,\n                              noPostVotes:0,\n                              processed:false,\n                              didPass:false,\n                              aborted:false,\n                              didfinalPass:false,\n                              proposer:payable(msg.sender),\n                              votedMembers: arr\n                    \n     }));  \n     proposalIndex +=1;\n     emit SubmitProposal(proposalIndex,msg.sender,_proposalworth);\n     return true;\n    }\n    \nfunction getProposalCount() public view returns(uint256) {  return proposals.length;}\n\nfunction didProposalPass(uint256 _proposalIndex) public view returns(bool) { return  proposals[_proposalIndex].didPass;}\n\nfunction didProposalFinalPass(uint256 _proposalIndex) public view returns(bool) { return  proposals[_proposalIndex].didfinalPass;}\n\nfunction didProposalProcessed(uint256 _proposalIndex) public view returns(bool) { return  proposals[_proposalIndex].processed;}\n\nfunction didProposalAborted(uint256 _proposalIndex) public view returns(bool) { return  proposals[_proposalIndex].aborted;}\n\nfunction fetchProposalShare(uint256 _proposalIndex) public view returns(uint256) { return  ComputeTotalShare(_proposalIndex);}\n\n// function FetchProposalIndex(string memory _proposalname , uint256  _proposalworth) public view returns (uint256){\n        \n//         for (uint i=0; i<proposals.length; i++) {\n//             if(keccak256(abi.encodePacked(proposals[i].name)) == keccak256(abi.encodePacked(_proposalname)) && proposals[i].proposalvalue == _proposalworth)\n//             return(proposals[i].uid);\n//             }\n//     }\n\nfunction getProposalByIndex(uint256  _index) public view returns (uint256,  string memory, uint256, uint256, uint256, bool, address){\n        \n        \n            return(proposals[_index].uid , proposals[_index].name, proposals[_index].proposalvalue, proposals[_index].yesVotes, proposals[_index].noVotes, proposals[_index].didPass, proposals[_index].proposer);\n            \n    }\nfunction getProposalByIndex2(uint256  _index) public view returns (uint256,  string memory, uint256, bool, uint256, uint256,address){\n        \n        \n            return(proposals[_index].uid , proposals[_index].name, proposals[_index].proposalvalue, proposals[_index].processed, proposals[_index].yesPostVotes, proposals[_index].noPostVotes, proposals[_index].proposer);\n            \n    }\n\n\n\nfunction hasProposalPassed(uint256 _proposalIndex) public returns (bool){\n     // This function checks if the particular proposal passed or fail by 60% percentage cutoff.     \n     //uint256 sum_votes = proposals[_proposalIndex].yesVotes + proposals[_proposalIndex].noVotes;\n     //if((proposals[_proposalIndex].yesVotes/ sum_votes)* 100 >= (60))\n     if(proposals[_proposalIndex].yesVotes > proposals[_proposalIndex].noVotes)\n     {\n        proposals[_proposalIndex].didPass = true; \n        ProposalFundBlock(_proposalIndex);\n        return true;\n            \n        }\n     else\n     {  proposals[_proposalIndex].didPass = false;\n        //ProposalFundBlock(_proposalIndex);\n        proposals[_proposalIndex].aborted = true;\n        return false;}\n    }\n\nfunction hasProposalPassedFinal(uint256 _proposalIndex) public returns (bool){\n     // This function checks if the particular proposal passed or fail by 60% percentage cutoff.     \n     //uint256 sum_votes = proposals[_proposalIndex].yesVotes + proposals[_proposalIndex].noVotes;\n     //if((proposals[_proposalIndex].yesVotes/ sum_votes)* 100 >= (60))\n     if(proposals[_proposalIndex].yesPostVotes > proposals[_proposalIndex].noPostVotes)\n        {proposals[_proposalIndex].didfinalPass = true; \n        Transfer(proposals[_proposalIndex].proposer,proposals[_proposalIndex].proposalvalue);\n        return true;}\n     else\n     {  proposals[_proposalIndex].didfinalPass = false;\n        proposals[_proposalIndex].aborted = true;\n        refundFunds(_proposalIndex);\n        return false;}\n    }\nfunction fetchBlockNumber() public view returns(uint256)\n{\n    return block.number;\n}\n    \nfunction hasVotingPeriodExpired(uint256 _proposalIndex) public view returns (bool) {\n        //This function checks for the voting period expiration for the proposal for 60 sec\n        uint256 start = proposals[_proposalIndex].startingPeriod;\n        return (now - start) >= 60;\n    }\n\nfunction hasVotingPeriodExpiredFinal(uint256 _proposalIndex) public view returns (bool) {\n        //This function checks for the voting period expiration for the proposal for 60 sec\n        uint256 start = proposals[_proposalIndex].startingPeriodFinal;\n        return (now - start) >= 60;\n    }\n    \n    function ComputeTotalShare(uint256 _proposalIndex) public view returns(uint256){\n        \n        uint256 worth = proposals[_proposalIndex].proposalvalue;\n        uint256 totalvote = proposals[_proposalIndex].votedMembers.length;\n        require(worth >= totalvote,\"The proposal worth is too low\");\n        \n        return worth/totalvote;\n        \n    }\n    \n    function submitVote(uint256 proposalIndex, uint8 uintVote) public {\n    //    Member storage member = members[msg.sender];\n         address memberAddress = msg.sender;\n        Vote vote = Vote(uintVote);\n\n    \n         require(proposals[proposalIndex].votesByMember[memberAddress] == Vote.Null, \"submitVote - member has already voted on this proposal\");\n         require(vote == Vote.Yes || vote == Vote.No, \"submitVote - vote must be either Yes or No\");\n        // store vote\n         proposals[proposalIndex].votesByMember[memberAddress] = vote;\n         proposals[proposalIndex].votedMembers.push(memberAddress);\n\n    //    Adding counts to respective Yes or No\n         if (vote == Vote.Yes) {\n            proposals[proposalIndex].yesVotes  += 1;\n\n         } else if (vote == Vote.No) {\n            proposals[proposalIndex].noVotes += 1;\n         }\n         //ProposalFundBlock(proposalIndex,msg.sender);\n         emit SubmitVote(proposalIndex, msg.sender, memberAddress, uintVote);\n     }\n     \n    \n    function proposerCompleteVote(uint256 p_Index,uint256 voteIndex)  public \n    {\n        if (voteIndex==1) {\n            proposals[p_Index].processed = true;\n            proposals[p_Index].aborted = false;\n            proposals[p_Index].startingPeriodFinal = now;\n        }\n        else\n        {\n            proposals[p_Index].aborted = true;\n            proposals[p_Index].processed = false;   \n            proposals[p_Index].startingPeriodFinal = now;\n        }\n\n    }\n    \n\n    function submitPassedVote(uint256 proposalIndex, uint8 uintVote) public {\n        //This function \n         address memberAddress = msg.sender;\n         Vote postVote = Vote(uintVote);\n\n    //    Adding counts to respective Yes or No\n         if (postVote == Vote.Yes) {\n            proposals[proposalIndex].yesPostVotes  += 1;\n\n         } \n         else if (postVote == Vote.No) {\n            proposals[proposalIndex].noPostVotes += 1;\n         }\n         \n         emit SubmitVote(proposalIndex, msg.sender, memberAddress, uintVote);\n     }\n\n     \n    \n   \n\n    \n}\n",
  "sourcePath": "/home/teja/Documents/BLCON/crowdao/contracts/crowdao.sol",
  "compiler": {
    "name": "solc",
    "version": "0.6.6+commit.6c089d02.Emscripten.clang"
  },
  "schemaVersion": "3.1.0",
  "updatedAt": "2020-05-14T11:28:56.358Z",
  "networkType": "ethereum",
  "devdoc": {
    "methods": {}
  },
  "userdoc": {
    "methods": {}
  }
}