{
  "contractName": "crowdao",
  "abi": [
    {
      "inputs": [],
      "stateMutability": "nonpayable",
      "type": "constructor"
    },
    {
      "anonymous": false,
      "inputs": [
        {
          "indexed": true,
          "internalType": "uint256",
          "name": "proposalIndex",
          "type": "uint256"
        },
        {
          "indexed": true,
          "internalType": "address",
          "name": "applicant",
          "type": "address"
        },
        {
          "indexed": true,
          "internalType": "address",
          "name": "memberAddress",
          "type": "address"
        },
        {
          "indexed": false,
          "internalType": "uint256",
          "name": "tokenTribute",
          "type": "uint256"
        },
        {
          "indexed": false,
          "internalType": "uint256",
          "name": "sharesRequested",
          "type": "uint256"
        },
        {
          "indexed": false,
          "internalType": "bool",
          "name": "didPass",
          "type": "bool"
        }
      ],
      "name": "ProcessProposal",
      "type": "event"
    },
    {
      "anonymous": false,
      "inputs": [
        {
          "indexed": false,
          "internalType": "uint256",
          "name": "proposalIndex",
          "type": "uint256"
        },
        {
          "indexed": true,
          "internalType": "address",
          "name": "proposer",
          "type": "address"
        },
        {
          "indexed": false,
          "internalType": "uint256",
          "name": "totalworth",
          "type": "uint256"
        }
      ],
      "name": "SubmitProposal",
      "type": "event"
    },
    {
      "anonymous": false,
      "inputs": [
        {
          "indexed": true,
          "internalType": "uint256",
          "name": "proposalIndex",
          "type": "uint256"
        },
        {
          "indexed": true,
          "internalType": "address",
          "name": "delegateKey",
          "type": "address"
        },
        {
          "indexed": true,
          "internalType": "address",
          "name": "memberAddress",
          "type": "address"
        },
        {
          "indexed": false,
          "internalType": "uint8",
          "name": "uintVote",
          "type": "uint8"
        }
      ],
      "name": "SubmitVote",
      "type": "event"
    },
    {
      "inputs": [
        {
          "internalType": "uint256",
          "name": "",
          "type": "uint256"
        }
      ],
      "name": "arr",
      "outputs": [
        {
          "internalType": "address",
          "name": "",
          "type": "address"
        }
      ],
      "stateMutability": "view",
      "type": "function"
    },
    {
      "inputs": [],
      "name": "chairperson",
      "outputs": [
        {
          "internalType": "address",
          "name": "",
          "type": "address"
        }
      ],
      "stateMutability": "view",
      "type": "function"
    },
    {
      "inputs": [
        {
          "internalType": "uint256",
          "name": "",
          "type": "uint256"
        }
      ],
      "name": "proposals",
      "outputs": [
        {
          "internalType": "uint256",
          "name": "uid",
          "type": "uint256"
        },
        {
          "internalType": "string",
          "name": "name",
          "type": "string"
        },
        {
          "internalType": "uint256",
          "name": "proposalvalue",
          "type": "uint256"
        },
        {
          "internalType": "address payable",
          "name": "proposer",
          "type": "address"
        },
        {
          "internalType": "uint256",
          "name": "startingPeriod",
          "type": "uint256"
        },
        {
          "internalType": "uint256",
          "name": "startingPeriodFinal",
          "type": "uint256"
        },
        {
          "internalType": "uint256",
          "name": "yesVotes",
          "type": "uint256"
        },
        {
          "internalType": "uint256",
          "name": "yesPostVotes",
          "type": "uint256"
        },
        {
          "internalType": "uint256",
          "name": "noVotes",
          "type": "uint256"
        },
        {
          "internalType": "uint256",
          "name": "noPostVotes",
          "type": "uint256"
        },
        {
          "internalType": "bool",
          "name": "processed",
          "type": "bool"
        },
        {
          "internalType": "bool",
          "name": "didPass",
          "type": "bool"
        },
        {
          "internalType": "bool",
          "name": "didfinalPass",
          "type": "bool"
        },
        {
          "internalType": "bool",
          "name": "aborted",
          "type": "bool"
        }
      ],
      "stateMutability": "view",
      "type": "function"
    },
    {
      "inputs": [
        {
          "internalType": "address",
          "name": "",
          "type": "address"
        }
      ],
      "name": "voters",
      "outputs": [
        {
          "internalType": "bool",
          "name": "voted",
          "type": "bool"
        },
        {
          "internalType": "uint256",
          "name": "vote",
          "type": "uint256"
        }
      ],
      "stateMutability": "view",
      "type": "function"
    },
    {
      "inputs": [
        {
          "internalType": "uint256",
          "name": "value",
          "type": "uint256"
        }
      ],
      "name": "selfAdd",
      "outputs": [
        {
          "internalType": "uint256",
          "name": "",
          "type": "uint256"
        }
      ],
      "stateMutability": "nonpayable",
      "type": "function"
    },
    {
      "inputs": [],
      "name": "invest",
      "outputs": [
        {
          "internalType": "bool",
          "name": "",
          "type": "bool"
        }
      ],
      "stateMutability": "payable",
      "type": "function"
    },
    {
      "inputs": [],
      "name": "BalanceOfchairperson",
      "outputs": [
        {
          "internalType": "uint256",
          "name": "",
          "type": "uint256"
        }
      ],
      "stateMutability": "view",
      "type": "function"
    },
    {
      "inputs": [
        {
          "internalType": "address payable",
          "name": "_member",
          "type": "address"
        }
      ],
      "name": "MembersWalletBalance",
      "outputs": [
        {
          "internalType": "uint256",
          "name": "",
          "type": "uint256"
        }
      ],
      "stateMutability": "view",
      "type": "function"
    },
    {
      "inputs": [
        {
          "internalType": "address",
          "name": "addr",
          "type": "address"
        }
      ],
      "name": "getBalance",
      "outputs": [
        {
          "internalType": "uint256",
          "name": "",
          "type": "uint256"
        }
      ],
      "stateMutability": "view",
      "type": "function"
    },
    {
      "inputs": [
        {
          "internalType": "address payable",
          "name": "_to",
          "type": "address"
        },
        {
          "internalType": "uint256",
          "name": "_value",
          "type": "uint256"
        }
      ],
      "name": "Transfer",
      "outputs": [],
      "stateMutability": "payable",
      "type": "function"
    },
    {
      "inputs": [
        {
          "internalType": "uint256",
          "name": "_proposalIndex",
          "type": "uint256"
        }
      ],
      "name": "ProposalFundBlock",
      "outputs": [],
      "stateMutability": "nonpayable",
      "type": "function"
    },
    {
      "inputs": [
        {
          "internalType": "uint256",
          "name": "_proposalIndex",
          "type": "uint256"
        }
      ],
      "name": "isProposer",
      "outputs": [
        {
          "internalType": "bool",
          "name": "",
          "type": "bool"
        }
      ],
      "stateMutability": "view",
      "type": "function"
    },
    {
      "inputs": [
        {
          "internalType": "uint256",
          "name": "proposalIndex",
          "type": "uint256"
        }
      ],
      "name": "refundFunds",
      "outputs": [
        {
          "internalType": "bool",
          "name": "",
          "type": "bool"
        }
      ],
      "stateMutability": "nonpayable",
      "type": "function"
    },
    {
      "inputs": [
        {
          "internalType": "string",
          "name": "_proposalname",
          "type": "string"
        },
        {
          "internalType": "uint256",
          "name": "_proposalworth",
          "type": "uint256"
        }
      ],
      "name": "addProposal",
      "outputs": [
        {
          "internalType": "bool",
          "name": "",
          "type": "bool"
        }
      ],
      "stateMutability": "nonpayable",
      "type": "function"
    },
    {
      "inputs": [],
      "name": "getProposalCount",
      "outputs": [
        {
          "internalType": "uint256",
          "name": "",
          "type": "uint256"
        }
      ],
      "stateMutability": "view",
      "type": "function"
    },
    {
      "inputs": [
        {
          "internalType": "uint256",
          "name": "_proposalIndex",
          "type": "uint256"
        }
      ],
      "name": "didProposalPass",
      "outputs": [
        {
          "internalType": "bool",
          "name": "",
          "type": "bool"
        }
      ],
      "stateMutability": "view",
      "type": "function"
    },
    {
      "inputs": [
        {
          "internalType": "uint256",
          "name": "_proposalIndex",
          "type": "uint256"
        }
      ],
      "name": "didProposalFinalPass",
      "outputs": [
        {
          "internalType": "bool",
          "name": "",
          "type": "bool"
        }
      ],
      "stateMutability": "view",
      "type": "function"
    },
    {
      "inputs": [
        {
          "internalType": "uint256",
          "name": "_proposalIndex",
          "type": "uint256"
        }
      ],
      "name": "didProposalProcessed",
      "outputs": [
        {
          "internalType": "bool",
          "name": "",
          "type": "bool"
        }
      ],
      "stateMutability": "view",
      "type": "function"
    },
    {
      "inputs": [
        {
          "internalType": "uint256",
          "name": "_proposalIndex",
          "type": "uint256"
        }
      ],
      "name": "didProposalAborted",
      "outputs": [
        {
          "internalType": "bool",
          "name": "",
          "type": "bool"
        }
      ],
      "stateMutability": "view",
      "type": "function"
    },
    {
      "inputs": [
        {
          "internalType": "string",
          "name": "_proposalname",
          "type": "string"
        },
        {
          "internalType": "uint256",
          "name": "_proposalworth",
          "type": "uint256"
        }
      ],
      "name": "FetchProposalIndex",
      "outputs": [
        {
          "internalType": "uint256",
          "name": "",
          "type": "uint256"
        }
      ],
      "stateMutability": "view",
      "type": "function"
    },
    {
      "inputs": [
        {
          "internalType": "uint256",
          "name": "_index",
          "type": "uint256"
        }
      ],
      "name": "getProposalByIndex",
      "outputs": [
        {
          "internalType": "uint256",
          "name": "",
          "type": "uint256"
        },
        {
          "internalType": "string",
          "name": "",
          "type": "string"
        },
        {
          "internalType": "uint256",
          "name": "",
          "type": "uint256"
        },
        {
          "internalType": "uint256",
          "name": "",
          "type": "uint256"
        },
        {
          "internalType": "uint256",
          "name": "",
          "type": "uint256"
        },
        {
          "internalType": "bool",
          "name": "",
          "type": "bool"
        },
        {
          "internalType": "address",
          "name": "",
          "type": "address"
        }
      ],
      "stateMutability": "view",
      "type": "function"
    },
    {
      "inputs": [
        {
          "internalType": "uint256",
          "name": "_index",
          "type": "uint256"
        }
      ],
      "name": "getProposalByIndex2",
      "outputs": [
        {
          "internalType": "uint256",
          "name": "",
          "type": "uint256"
        },
        {
          "internalType": "string",
          "name": "",
          "type": "string"
        },
        {
          "internalType": "uint256",
          "name": "",
          "type": "uint256"
        },
        {
          "internalType": "bool",
          "name": "",
          "type": "bool"
        },
        {
          "internalType": "uint256",
          "name": "",
          "type": "uint256"
        },
        {
          "internalType": "uint256",
          "name": "",
          "type": "uint256"
        }
      ],
      "stateMutability": "view",
      "type": "function"
    },
    {
      "inputs": [
        {
          "internalType": "uint256",
          "name": "_proposalIndex",
          "type": "uint256"
        }
      ],
      "name": "hasProposalPassed",
      "outputs": [
        {
          "internalType": "bool",
          "name": "",
          "type": "bool"
        }
      ],
      "stateMutability": "nonpayable",
      "type": "function"
    },
    {
      "inputs": [
        {
          "internalType": "uint256",
          "name": "_proposalIndex",
          "type": "uint256"
        }
      ],
      "name": "hasProposalPassedFinal",
      "outputs": [
        {
          "internalType": "bool",
          "name": "",
          "type": "bool"
        }
      ],
      "stateMutability": "nonpayable",
      "type": "function"
    },
    {
      "inputs": [],
      "name": "fetchBlockNumber",
      "outputs": [
        {
          "internalType": "uint256",
          "name": "",
          "type": "uint256"
        }
      ],
      "stateMutability": "view",
      "type": "function"
    },
    {
      "inputs": [
        {
          "internalType": "uint256",
          "name": "_proposalIndex",
          "type": "uint256"
        }
      ],
      "name": "hasVotingPeriodExpired",
      "outputs": [
        {
          "internalType": "bool",
          "name": "",
          "type": "bool"
        }
      ],
      "stateMutability": "view",
      "type": "function"
    },
    {
      "inputs": [
        {
          "internalType": "uint256",
          "name": "_proposalIndex",
          "type": "uint256"
        }
      ],
      "name": "hasVotingPeriodExpiredFinal",
      "outputs": [
        {
          "internalType": "bool",
          "name": "",
          "type": "bool"
        }
      ],
      "stateMutability": "view",
      "type": "function"
    },
    {
      "inputs": [
        {
          "internalType": "uint256",
          "name": "_proposalIndex",
          "type": "uint256"
        }
      ],
      "name": "ComputeTotalShare",
      "outputs": [
        {
          "internalType": "uint256",
          "name": "",
          "type": "uint256"
        }
      ],
      "stateMutability": "view",
      "type": "function"
    },
    {
      "inputs": [
        {
          "internalType": "uint256",
          "name": "proposalIndex",
          "type": "uint256"
        },
        {
          "internalType": "uint8",
          "name": "uintVote",
          "type": "uint8"
        }
      ],
      "name": "submitVote",
      "outputs": [],
      "stateMutability": "nonpayable",
      "type": "function"
    },
    {
      "inputs": [
        {
          "internalType": "uint256",
          "name": "p_Index",
          "type": "uint256"
        },
        {
          "internalType": "uint256",
          "name": "voteIndex",
          "type": "uint256"
        }
      ],
      "name": "proposerCompleteVote",
      "outputs": [],
      "stateMutability": "nonpayable",
      "type": "function"
    },
    {
      "inputs": [
        {
          "internalType": "uint256",
          "name": "proposalIndex",
          "type": "uint256"
        },
        {
          "internalType": "uint8",
          "name": "uintVote",
          "type": "uint8"
        }
      ],
      "name": "submitPassedVote",
      "outputs": [],
      "stateMutability": "nonpayable",
      "type": "function"
    }
  ],
  "bytecode": "0x608060405234801561001057600080fd5b50600180546001600160a01b03199081163017808355600060058190556001600160a01b039182168152602081905260408082208290558454909216808252919020909201805490911690911790556121378061006e6000396000f3fe6080604052600436106101d85760003560e01c806399653fbe11610102578063d15b0a4d11610095578063e8b5e51f11610064578063e8b5e51f146109f0578063ecfbb764146109f8578063f3289ee614610a0d578063f8b2cb4f14610a37576101d8565b8063d15b0a4d1461093f578063e56cf0d414610969578063e6a9da231461099c578063e88bd49a146109c6576101d8565b8063c1072bdb116100d1578063c1072bdb14610821578063c208abdc1461084b578063c565782014610900578063cebf3b1a14610915576101d8565b806399653fbe146107615780639ea35b3f14610794578063a3ec138d146107be578063c08cc02d1461080c576101d8565b806337d1d3891161017a57806369ca02dd1161014957806369ca02dd146106ae57806371e5ee5f146106da5780637de33c1d146107045780639425a47614610737576101d8565b806337d1d389146104ba5780634ea00e411461059357806361af2ad31461065a5780636414b6a114610684576101d8565b80631ffff33b116101b65780631ffff33b146103645780632d36bd871461042d5780632e4176cf1461045f57806331f906a014610490576101d8565b8063013cf08b146101dd57806306e65f48146102fc57806315f1bbfe1461033a575b600080fd5b3480156101e957600080fd5b506102076004803603602081101561020057600080fd5b5035610a6a565b604051808f8152602001806020018e81526020018d6001600160a01b03166001600160a01b031681526020018c81526020018b81526020018a81526020018981526020018881526020018781526020018615151515815260200185151515158152602001841515151581526020018315151515815260200182810382528f818151815260200191508051906020019080838360005b838110156102b457818101518382015260200161029c565b50505050905090810190601f1680156102e15780820380516001836020036101000a031916815260200191505b509f5050505050505050505050505050505060405180910390f35b34801561030857600080fd5b506103266004803603602081101561031f57600080fd5b5035610b97565b604080519115158252519081900360200190f35b34801561034657600080fd5b506103266004803603602081101561035d57600080fd5b5035610bd6565b34801561037057600080fd5b5061038e6004803603602081101561038757600080fd5b5035610cab565b604051808781526020018060200186815260200185151515158152602001848152602001838152602001828103825287818151815260200191508051906020019080838360005b838110156103ed5781810151838201526020016103d5565b50505050905090810190601f16801561041a5780820380516001836020036101000a031916815260200191505b5097505050505050505060405180910390f35b34801561043957600080fd5b5061045d6004803603604081101561045057600080fd5b5080359060200135610e20565b005b34801561046b57600080fd5b50610474610f4f565b604080516001600160a01b039092168252519081900360200190f35b34801561049c57600080fd5b50610326600480360360208110156104b357600080fd5b5035610f5e565b3480156104c657600080fd5b506104e4600480360360208110156104dd57600080fd5b5035610f91565b60408051888152908101869052606081018590526080810184905282151560a08201526001600160a01b03821660c082015260e0602080830182815289519284019290925288516101008401918a019080838360005b8381101561055257818101518382015260200161053a565b50505050905090810190601f16801561057f5780820380516001836020036101000a031916815260200191505b509850505050505050505060405180910390f35b34801561059f57600080fd5b50610648600480360360408110156105b657600080fd5b8101906020810181356401000000008111156105d157600080fd5b8201836020820111156105e357600080fd5b8035906020019184600183028401116401000000008311171561060557600080fd5b91908080601f0160208091040260200160405190810160405280939291908181526020018383808284376000920191909152509295505091359250611138915050565b60408051918252519081900360200190f35b34801561066657600080fd5b5061045d6004803603602081101561067d57600080fd5b50356112b1565b34801561069057600080fd5b50610326600480360360208110156106a757600080fd5b50356113bd565b61045d600480360360408110156106c457600080fd5b506001600160a01b0381351690602001356114b5565b3480156106e657600080fd5b50610474600480360360208110156106fd57600080fd5b503561155e565b34801561071057600080fd5b506106486004803603602081101561072757600080fd5b50356001600160a01b0316611585565b34801561074357600080fd5b506103266004803603602081101561075a57600080fd5b5035611592565b34801561076d57600080fd5b5061045d6004803603604081101561078457600080fd5b508035906020013560ff166115c5565b3480156107a057600080fd5b50610326600480360360208110156107b757600080fd5b5035611821565b3480156107ca57600080fd5b506107f1600480360360208110156107e157600080fd5b50356001600160a01b031661184d565b60408051921515835260208301919091528051918290030190f35b34801561081857600080fd5b5061064861186c565b34801561082d57600080fd5b506103266004803603602081101561084457600080fd5b5035611873565b34801561085757600080fd5b506103266004803603604081101561086e57600080fd5b81019060208101813564010000000081111561088957600080fd5b82018360208201111561089b57600080fd5b803590602001918460018302840111640100000000831117156108bd57600080fd5b91908080601f01602080910402602001604051908101604052809392919081815260200183838082843760009201919091525092955050913592506118a5915050565b34801561090c57600080fd5b50610648611b5e565b34801561092157600080fd5b506103266004803603602081101561093857600080fd5b5035611b6e565b34801561094b57600080fd5b506106486004803603602081101561096257600080fd5b5035611c34565b34801561097557600080fd5b5061045d6004803603604081101561098c57600080fd5b508035906020013560ff16611ca7565b3480156109a857600080fd5b50610648600480360360208110156109bf57600080fd5b5035611d86565b3480156109d257600080fd5b50610326600480360360208110156109e957600080fd5b5035611e37565b610326611e68565b348015610a0457600080fd5b50610648611eb3565b348015610a1957600080fd5b5061032660048036036020811015610a3057600080fd5b5035611eb7565b348015610a4357600080fd5b5061064860048036036020811015610a5a57600080fd5b50356001600160a01b0316611eea565b60048181548110610a7757fe5b90600052602060002090600d0201600091509050806000015490806001018054600181600116156101000203166002900480601f016020809104026020016040519081016040528092919081815260200182805460018160011615610100020316600290048015610b295780601f10610afe57610100808354040283529160200191610b29565b820191906000526020600020905b815481529060010190602001808311610b0c57829003601f168201915b50505060028401546003850154600486015460058701546006880154600789015460088a015460098b0154600a909b0154999a96996001600160a01b0390961698509396509194909391929160ff80821691610100810482169162010000820481169163010000009004168e565b6000336001600160a01b031660048381548110610bb057fe5b600091825260209091206003600d9092020101546001600160a01b03161490505b919050565b600080610be283611d86565b9050600060048481548110610bf357fe5b60009182526020909120600c600d90920201015490508015610ca15760005b60018203811015610c9f576001546001600160a01b03166000908152602081905260409020548311610c97578260008060048881548110610c4f57fe5b90600052602060002090600d0201600c018481548110610c6b57fe5b60009182526020808320909101546001600160a01b031683528201929092526040019020805490910190555b600101610c12565b505b5060019392505050565b6000606060008060008060048781548110610cc257fe5b90600052602060002090600d02016000015460048881548110610ce157fe5b90600052602060002090600d020160010160048981548110610cff57fe5b90600052602060002090600d02016002015460048a81548110610d1e57fe5b90600052602060002090600d0201600a0160009054906101000a900460ff1660048b81548110610d4a57fe5b90600052602060002090600d02016007015460048c81548110610d6957fe5b60009182526020918290206009600d909202010154855460408051601f600260001961010060018716150201909416939093049283018590048502810185019091528181529192879190830182828015610e045780601f10610dd957610100808354040283529160200191610e04565b820191906000526020600020905b815481529060010190602001808311610de757829003601f168201915b5050505050945095509550955095509550955091939550919395565b8060011415610eb957600160048381548110610e3857fe5b600091825260208220600d9190910201600a01805460ff1916921515929092179091556004805484908110610e6957fe5b90600052602060002090600d0201600a0160036101000a81548160ff0219169083151502179055504260048381548110610e9f57fe5b90600052602060002090600d020160050181905550610f4b565b600160048381548110610ec857fe5b90600052602060002090600d0201600a0160036101000a81548160ff021916908315150217905550600060048381548110610eff57fe5b90600052602060002090600d0201600a0160006101000a81548160ff0219169083151502179055504260048381548110610f3557fe5b90600052602060002090600d0201600501819055505b5050565b6001546001600160a01b031681565b60008060048381548110610f6e57fe5b90600052602060002090600d0201600501549050603c8142031015915050919050565b60006060600080600080600060048881548110610faa57fe5b90600052602060002090600d02016000015460048981548110610fc957fe5b90600052602060002090600d020160010160048a81548110610fe757fe5b90600052602060002090600d02016002015460048b8154811061100657fe5b90600052602060002090600d02016006015460048c8154811061102557fe5b90600052602060002090600d02016008015460048d8154811061104457fe5b90600052602060002090600d0201600a0160019054906101000a900460ff1660048e8154811061107057fe5b60009182526020918290206003600d909202010154865460408051601f600260001960018616156101000201909416939093049283018590048502810185019091528181526001600160a01b03909216928891908301828280156111155780601f106110ea57610100808354040283529160200191611115565b820191906000526020600020905b8154815290600101906020018083116110f857829003601f168201915b505050505095508090509650965096509650965096509650919395979092949650565b6000805b6004548110156112a957836040516020018082805190602001908083835b602083106111795780518252601f19909201916020918201910161115a565b6001836020036101000a03801982511681845116808217855250505050505090500191505060405160208183030381529060405280519060200120600482815481106111c157fe5b90600052602060002090600d020160010160405160200180828054600181600116156101000203166002900480156112305780601f1061120e576101008083540402835291820191611230565b820191906000526020600020905b81548152906001019060200180831161121c575b5050915050604051602081830303815290604052805190602001201480156112755750826004828154811061126157fe5b90600052602060002090600d020160020154145b156112a1576004818154811061128757fe5b90600052602060002090600d0201600001549150506112ab565b60010161113c565b505b92915050565b60006112bc82611d86565b905060006004600554815481106112cf57fe5b60009182526020909120600c600d909202010154905080156113b85760005b600182038110156113b6578260008060046005548154811061130c57fe5b90600052602060002090600d0201600c01848154811061132857fe5b60009182526020808320909101546001600160a01b03168352820192909252604001902054106113ae578260008060046005548154811061136557fe5b90600052602060002090600d0201600c01848154811061138157fe5b60009182526020808320909101546001600160a01b03168352820192909252604001902080549190910390555b6001016112ee565b505b505050565b600080600483815481106113cd57fe5b90600052602060002090600d020160080154600484815481106113ec57fe5b90600052602060002090600d020160060154019050603c816004858154811061141157fe5b90600052602060002090600d0201600601548161142a57fe5b04606402106114745760016004848154811061144257fe5b90600052602060002090600d0201600a0160016101000a81548160ff0219169083151502179055506001915050610bd1565b60006004848154811061148357fe5b90600052602060002090600d0201600a0160016101000a81548160ff0219169083151502179055506000915050610bd1565b6001546001600160a01b031660009081526020819052604090205481111561150e5760405162461bcd60e51b81526004018080602001828103825260228152602001806120e06022913960400191505060405180910390fd5b6001546001600160a01b0390811660009081526020819052604080822080548590039055519184169183156108fc0291849190818181858888f193505050501580156113b8573d6000803e3d6000fd5b6002818154811061156b57fe5b6000918252602090912001546001600160a01b0316905081565b6001600160a01b03163190565b600080600483815481106115a257fe5b90600052602060002090600d020160040154905060148142031015915050919050565b33600060ff831660028111156115d757fe5b90506000600485815481106115e857fe5b600091825260208083206001600160a01b0387168452600b600d90930201919091019052604090205460ff16600281111561161f57fe5b1461165b5760405162461bcd60e51b81526004018080602001828103825260368152602001806120846036913960400191505060405180910390fd5b600181600281111561166957fe5b14806116805750600281600281111561167e57fe5b145b6116bb5760405162461bcd60e51b815260040180806020018281038252602a81526020018061205a602a913960400191505060405180910390fd5b80600485815481106116c957fe5b600091825260208083206001600160a01b0387168452600b600d9093020191909101905260409020805460ff1916600183600281111561170557fe5b02179055506004848154811061171757fe5b60009182526020808320600d92909202909101600c01805460018082018355918452919092200180546001600160a01b0319166001600160a01b03851617905581600281111561176357fe5b14156117975760016004858154811061177857fe5b600091825260209091206006600d9092020101805490910190556117d5565b60028160028111156117a557fe5b14156117d5576001600485815481106117ba57fe5b600091825260209091206008600d9092020101805490910190555b6040805160ff8516815290516001600160a01b03841691339187917f29bf0061f2faa9daa482f061b116195432d435536d8af4ae6b3c5dd78223679b919081900360200190a450505050565b60006004828154811061183057fe5b60009182526020909120600d90910201600a015460ff1692915050565b6003602052600090815260409020805460019091015460ff9091169082565b6004545b90565b60006004828154811061188257fe5b60009182526020909120600d90910201600a015462010000900460ff1692915050565b3360008181526020819052604081206001015490916001600160a01b03909116146119015760405162461bcd60e51b81526004018080602001828103825260378152602001806120236037913960400191505060405180910390fd5b6004604051806101e001604052806005548152602001858152602001848152602001336001600160a01b03168152602001428152602001600081526020016000815260200160008152602001600081526020016000815260200160001515815260200160001515815260200160001515815260200160001515815260200160028054806020026020016040519081016040528092919081815260200182805480156119d557602002820191906000526020600020905b81546001600160a01b031681526001909101906020018083116119b7575b50505091909252505081546001818101845560009384526020938490208351600d9093020191825583830151805193949293611a1993928501929190910190611f05565b506040820151600282015560608201516003820180546001600160a01b039092166001600160a01b03199092169190911790556080820151600482015560a0820151600582015560c0820151600682015560e082015160078201556101008083015160088301556101208301516009830155610140830151600a830180546101608601516101808701516101a0880151151563010000000263ff00000019911515620100000262ff00001993151590970261ff001996151560ff199095169490941795909516929092171693909317929092161790556101c08201518051611b0b91600c840191602090910190611f83565b50506005805460010190819055604080519182526020820185905280513393507f88a8cc420850546d3cf2665b19ede58f1fbead3a8c83f87bcc60e26f70f28d6b9281900390910190a250600192915050565b6001546001600160a01b03163190565b600060048281548110611b7d57fe5b90600052602060002090600d02016009015460048381548110611b9c57fe5b90600052602060002090600d0201600701541115611bf457600160048381548110611bc357fe5b90600052602060002090600d0201600a0160026101000a81548160ff02191690831515021790555060019050610bd1565b600060048381548110611c0357fe5b90600052602060002090600d0201600a0160026101000a81548160ff02191690831515021790555060009050610bd1565b6000600a8211611c755760405162461bcd60e51b81526004018080602001828103825260268152602001806120ba6026913960400191505060405180910390fd5b50336000818152602081905260409020805492909201808355600190920180546001600160a01b031916909117905590565b33600060ff83166002811115611cb957fe5b90506001816002811115611cc957fe5b1415611cfd57600160048581548110611cde57fe5b600091825260209091206007600d9092020101805490910190556117d5565b6002816002811115611d0b57fe5b14156117d557600160048581548110611d2057fe5b600091825260209091206009600d9092020101805490910190556040805160ff8516815290516001600160a01b03841691339187917f29bf0061f2faa9daa482f061b116195432d435536d8af4ae6b3c5dd78223679b919081900360200190a450505050565b60008060048381548110611d9657fe5b90600052602060002090600d0201600201549050600060048481548110611db957fe5b90600052602060002090600d0201600c0180549050905080821015611e25576040805162461bcd60e51b815260206004820152601d60248201527f5468652070726f706f73616c20776f72746820697320746f6f206c6f77000000604482015290519081900360640190fd5b808281611e2e57fe5b04949350505050565b600060048281548110611e4657fe5b60009182526020909120600d90910201600a0154610100900460ff1692915050565b600180546001600160a01b031660009081526020819052604080822080543490810190915533808452919092208054909201825590820180546001600160a01b031916909117905590565b4390565b600060048281548110611ec657fe5b60009182526020909120600d90910201600a01546301000000900460ff1692915050565b6001600160a01b031660009081526020819052604090205490565b828054600181600116156101000203166002900490600052602060002090601f016020900481019282601f10611f4657805160ff1916838001178555611f73565b82800160010185558215611f73579182015b82811115611f73578251825591602001919060010190611f58565b50611f7f929150611fe4565b5090565b828054828255906000526020600020908101928215611fd8579160200282015b82811115611fd857825182546001600160a01b0319166001600160a01b03909116178255602090920191600190910190611fa3565b50611f7f929150611ffe565b61187091905b80821115611f7f5760008155600101611fea565b61187091905b80821115611f7f5780546001600160a01b031916815560010161200456fe596f752063616e6e6f7420706572666f726d207468697320616374696f6e7320617320796f7520617265206e6f742061206d656d6265727375626d6974566f7465202d20766f7465206d7573742062652065697468657220596573206f72204e6f7375626d6974566f7465202d206d656d6265722068617320616c726561647920766f746564206f6e20746869732070726f706f73616c4465706f736974207368616c6c2062652067726561746572207468616e20313020457468657243686169726d616e20646f6573206e6f7420686176652066756e6473207769746820a26469706673582212204b16ef7ba1d0269ce4e61966cf2aaadc727ac4a605becc8e1c7c64225386d79a64736f6c63430006060033",
  "immutableReferences": {},
  "source": "pragma solidity >=0.4.22 <0.7.0;\n\nimport \"./utilities.sol\";\n\ncontract crowdao is utilities{\n    \n// constructor initialising the Chairperson and proposalIndex.\nconstructor() public {\n        chairperson = address(this);\n        proposalIndex = 0;\n        accounts[chairperson].balance = 0;\n        accounts[chairperson].maddress = payable(chairperson);\n}\n\n\n        \n// Bank and Amount transfer in ETH \n\n\n        function selfAdd(uint256 value) external returns(uint256) {\n                require(value > 10, \"Deposit shall be greater than 10 Ether\");\n                 /*\n                      Function Adds the caller only if he is giving depositing greater than 10 ETH in the network.\n                      takes Proposal string and proposal worth value as input.\n                */\n                accounts[msg.sender].balance += value;\n                accounts[msg.sender].maddress = payable(msg.sender);\n                return accounts[msg.sender].balance;\n            }\n            \n        function invest() external payable returns(bool) {\n                //adding balance in chairperson account in accounts\n                accounts[chairperson].balance += msg.value;\n                //adding balance in self account in accounts\n                accounts[msg.sender].balance += msg.value;\n                //adding address as a member\n                accounts[msg.sender].maddress = payable(msg.sender);\n               return true;\n            } \n            \n        function BalanceOfchairperson() external view returns(uint256){\n                return chairperson.balance;\n            }\n        \n        function MembersWalletBalance(address payable _member) external view returns(uint){\n                return address(_member).balance;\n            }\n            \n        function getBalance(address addr) external view returns (uint256) {\n                return accounts[addr].balance;\n            }\n        function Transfer(address payable  _to,  uint _value)  public  payable{\n                require(accounts[chairperson].balance >= _value,\"Chairman does not have funds with \");\n                     accounts[chairperson].balance -= _value;\n                    //accounts[_to].balance += _value;\n                    _to.transfer(_value);\n            }        \n        function ProposalFundBlock(uint256 _proposalIndex) public  \n            {\n                uint256 value =  ComputeTotalShare(_proposalIndex);\n                uint256 len = proposals[proposalIndex].votedMembers.length;\n                if(len > 0){\n                    for (uint i=0; i<len-1; i++) {\n                        if(accounts[proposals[proposalIndex].votedMembers[i]].balance >= value) {\n                        //accounts[chairperson].balance += value;\n                        accounts[proposals[proposalIndex].votedMembers[i]].balance -= value;\n                    }  \n                \n                }\n                }\n                \n            }\n        \n        function isProposer(uint256 _proposalIndex) public view returns(bool) {\n           return proposals[_proposalIndex].proposer == msg.sender;\n        }\n            \n        function refundFunds(uint256 proposalIndex) public returns(bool)\n        {\n            uint256 value = ComputeTotalShare(proposalIndex);\n            uint256 len = proposals[proposalIndex].votedMembers.length;\n                if(len > 0){\n                    for (uint i=0; i<len-1; i++) {\n                        if(accounts[chairperson].balance >= value) {\n                        //accounts[chairperson].balance -= value;\n                        accounts[proposals[proposalIndex].votedMembers[i]].balance += value;\n                    }  \n                \n                }\n            \n            }\n            return true;\n        }\n    \n\n            \n            modifier CheckBalance{\n                require(accounts[msg.sender].balance >= 10, \"You cannot perform this actions as you have insufficient balance\");\n                _;\n            }\n        \n            modifier onlyAcccountHolder {\n                require(accounts[msg.sender].maddress == msg.sender, \"You cannot perform this actions as you are not a member\");\n                _;\n            }\n            modifier checkProposalValue(uint256 value){\n                //checkProposalValue(_proposalworth) \n                require(value >  accounts[chairperson].balance, \"You cannot perform this actions as you are not a member\");\n                _;\n            }\n            \nfunction addProposal(string memory _proposalname , uint256  _proposalworth) onlyAcccountHolder public returns(bool){\n        /*\n              function Adds Proposals based on the condition of the only if he is a member of the network.\n              takes Proposal string and proposal worth value as input.\n        */\n\n     proposals.push(Proposal({uid : proposalIndex,\n                              name: _proposalname,\n                              proposalvalue: _proposalworth,\n                              startingPeriod: now,\n                              startingPeriodFinal:0,\n                              yesVotes:0,\n                              yesPostVotes:0,\n                              noVotes:0,\n                              noPostVotes:0,\n                              processed:false,\n                              didPass:false,\n                              aborted:false,\n                              didfinalPass:false,\n                              proposer:payable(msg.sender),\n                              votedMembers: arr\n                    \n     }));  \n     proposalIndex +=1;\n     emit SubmitProposal(proposalIndex,msg.sender,_proposalworth);\n     return true;\n    }\n    \nfunction getProposalCount() public view returns(uint256) {  return proposals.length;}\n\nfunction didProposalPass(uint256 _proposalIndex) public view returns(bool) { return  proposals[_proposalIndex].didPass;}\n\nfunction didProposalFinalPass(uint256 _proposalIndex) public view returns(bool) { return  proposals[_proposalIndex].didfinalPass;}\n\nfunction didProposalProcessed(uint256 _proposalIndex) public view returns(bool) { return  proposals[_proposalIndex].processed;}\n\nfunction didProposalAborted(uint256 _proposalIndex) public view returns(bool) { return  proposals[_proposalIndex].aborted;}\n\n\nfunction FetchProposalIndex(string memory _proposalname , uint256  _proposalworth) public view returns (uint256){\n        \n        for (uint i=0; i<proposals.length; i++) {\n            if(keccak256(abi.encodePacked(proposals[i].name)) == keccak256(abi.encodePacked(_proposalname)) && proposals[i].proposalvalue == _proposalworth)\n            return(proposals[i].uid);\n            }\n    }\n\nfunction getProposalByIndex(uint256  _index) public view returns (uint256,  string memory, uint256, uint256, uint256, bool, address){\n        \n        \n            return(proposals[_index].uid , proposals[_index].name, proposals[_index].proposalvalue, proposals[_index].yesVotes, proposals[_index].noVotes, proposals[_index].didPass, proposals[_index].proposer);\n            \n    }\n\nfunction getProposalByIndex2(uint256  _index) public view returns (uint256,  string memory, uint256, bool, uint256, uint256){\n        \n        \n            return(proposals[_index].uid , proposals[_index].name, proposals[_index].proposalvalue, proposals[_index].processed, proposals[_index].yesPostVotes, proposals[_index].noPostVotes);\n            \n    }\n\n\n\nfunction hasProposalPassed(uint256 _proposalIndex) public returns (bool){\n     // This function checks if the particular proposal passed or fail by 60% percentage cutoff.     \n     uint256 sum_votes = proposals[_proposalIndex].yesVotes + proposals[_proposalIndex].noVotes;\n     if((proposals[_proposalIndex].yesVotes/ sum_votes)* 100 >= (60))\n        {proposals[_proposalIndex].didPass = true; \n        return true;}\n     else\n     {  proposals[_proposalIndex].didPass = false;\n        return false;}\n    }\n\nfunction hasProposalPassedFinal(uint256 _proposalIndex) public returns (bool){\n     // This function checks if the particular proposal passed or fail by 60% percentage cutoff.     \n     //uint256 sum_votes = proposals[_proposalIndex].yesVotes + proposals[_proposalIndex].noVotes;\n     //if((proposals[_proposalIndex].yesVotes/ sum_votes)* 100 >= (60))\n     if(proposals[_proposalIndex].yesPostVotes > proposals[_proposalIndex].noPostVotes)\n        {proposals[_proposalIndex].didfinalPass = true; \n        return true;}\n     else\n     {  proposals[_proposalIndex].didfinalPass = false;\n        return false;}\n    }\nfunction fetchBlockNumber() public view returns(uint256)\n{\n    return block.number;\n}\n    \nfunction hasVotingPeriodExpired(uint256 _proposalIndex) public view returns (bool) {\n        //This function checks for the voting period expiration for the proposal for 20 sec\n        uint256 start = proposals[_proposalIndex].startingPeriod;\n        return (now - start)>= 20;\n    }\n\nfunction hasVotingPeriodExpiredFinal(uint256 _proposalIndex) public view returns (bool) {\n        //This function checks for the voting period expiration for the proposal for 60 sec\n        uint256 start = proposals[_proposalIndex].startingPeriodFinal;\n        return (now - start) >= 60;\n    }\n    \n    function ComputeTotalShare(uint256 _proposalIndex) public view returns(uint256){\n        \n        uint256 worth = proposals[_proposalIndex].proposalvalue;\n        uint256 totalvote = proposals[_proposalIndex].votedMembers.length;\n        require(worth >= totalvote,\"The proposal worth is too low\");\n        \n        return worth/totalvote;\n        \n    }\n    \n    function submitVote(uint256 proposalIndex, uint8 uintVote) public {\n    //    Member storage member = members[msg.sender];\n         address memberAddress = msg.sender;\n    //     require(uintVote < 3, \"Moloch::submitVote - uintVote must be less than 3\");\n        Vote vote = Vote(uintVote);\n\n    //     //require(getCurrentPeriod() >= proposal.startingPeriod, \"Moloch::submitVote - voting period has not started\");\n    //     //require(!hasVotingPeriodExpired(proposal.startingPeriod), \"Moloch::submitVote - proposal voting period has expired\");\n         require(proposals[proposalIndex].votesByMember[memberAddress] == Vote.Null, \"submitVote - member has already voted on this proposal\");\n         require(vote == Vote.Yes || vote == Vote.No, \"submitVote - vote must be either Yes or No\");\n        // store vote\n         proposals[proposalIndex].votesByMember[memberAddress] = vote;\n         proposals[proposalIndex].votedMembers.push(memberAddress);\n\n    //    Adding counts to respective Yes or No\n         if (vote == Vote.Yes) {\n            proposals[proposalIndex].yesVotes  += 1;\n\n         } else if (vote == Vote.No) {\n            proposals[proposalIndex].noVotes += 1;\n         }\n         //ProposalFundBlock(proposalIndex,msg.sender);\n         emit SubmitVote(proposalIndex, msg.sender, memberAddress, uintVote);\n     }\n     \n    \n    function proposerCompleteVote(uint256 p_Index,uint256 voteIndex)  public \n    {\n        if (voteIndex==1) {\n            proposals[p_Index].processed = true;\n            proposals[p_Index].aborted = false;\n            proposals[p_Index].startingPeriodFinal = now;\n        }\n        else\n        {\n            proposals[p_Index].aborted = true;\n            proposals[p_Index].processed = false;   \n            proposals[p_Index].startingPeriodFinal = now;\n        }\n\n    }\n    \n\n    function submitPassedVote(uint256 proposalIndex, uint8 uintVote) public {\n        //This function \n         address memberAddress = msg.sender;\n         Vote postVote = Vote(uintVote);\n        // require(proposals[proposalIndex].votesByMember[memberAddress] == Vote.Null, \"Moloch::submitVote - member has already voted on this proposal\");\n\n    //    Adding counts to respective Yes or No\n         if (postVote == Vote.Yes) {\n            proposals[proposalIndex].yesPostVotes  += 1;\n\n         } \n         else if (postVote == Vote.No) {\n            proposals[proposalIndex].noPostVotes += 1;\n         }\n         \n         emit SubmitVote(proposalIndex, msg.sender, memberAddress, uintVote);\n     }\n\n     \n    \n   \n\n    \n}\n",
  "sourcePath": "/home/teja/Documents/BLCON/crowdao/contracts/crowdao.sol",
  "compiler": {
    "name": "solc",
    "version": "0.6.6+commit.6c089d02.Emscripten.clang"
  },
  "schemaVersion": "3.1.0",
  "updatedAt": "2020-05-12T14:37:44.438Z",
  "devdoc": {
    "methods": {}
  },
  "userdoc": {
    "methods": {}
  }
}