{
  "contractName": "utilities",
  "abi": [
    {
      "anonymous": false,
      "inputs": [
        {
          "indexed": true,
          "internalType": "uint256",
          "name": "proposalIndex",
          "type": "uint256"
        },
        {
          "indexed": true,
          "internalType": "address",
          "name": "applicant",
          "type": "address"
        },
        {
          "indexed": true,
          "internalType": "address",
          "name": "memberAddress",
          "type": "address"
        },
        {
          "indexed": false,
          "internalType": "uint256",
          "name": "tokenTribute",
          "type": "uint256"
        },
        {
          "indexed": false,
          "internalType": "uint256",
          "name": "sharesRequested",
          "type": "uint256"
        },
        {
          "indexed": false,
          "internalType": "bool",
          "name": "didPass",
          "type": "bool"
        }
      ],
      "name": "ProcessProposal",
      "type": "event"
    },
    {
      "anonymous": false,
      "inputs": [
        {
          "indexed": false,
          "internalType": "uint256",
          "name": "proposalIndex",
          "type": "uint256"
        },
        {
          "indexed": true,
          "internalType": "address",
          "name": "proposer",
          "type": "address"
        },
        {
          "indexed": false,
          "internalType": "uint256",
          "name": "totalworth",
          "type": "uint256"
        }
      ],
      "name": "SubmitProposal",
      "type": "event"
    },
    {
      "anonymous": false,
      "inputs": [
        {
          "indexed": true,
          "internalType": "uint256",
          "name": "proposalIndex",
          "type": "uint256"
        },
        {
          "indexed": true,
          "internalType": "address",
          "name": "delegateKey",
          "type": "address"
        },
        {
          "indexed": true,
          "internalType": "address",
          "name": "memberAddress",
          "type": "address"
        },
        {
          "indexed": false,
          "internalType": "uint8",
          "name": "uintVote",
          "type": "uint8"
        }
      ],
      "name": "SubmitVote",
      "type": "event"
    },
    {
      "inputs": [
        {
          "internalType": "uint256",
          "name": "",
          "type": "uint256"
        }
      ],
      "name": "arr",
      "outputs": [
        {
          "internalType": "address",
          "name": "",
          "type": "address"
        }
      ],
      "stateMutability": "view",
      "type": "function",
      "constant": true
    },
    {
      "inputs": [],
      "name": "chairperson",
      "outputs": [
        {
          "internalType": "address",
          "name": "",
          "type": "address"
        }
      ],
      "stateMutability": "view",
      "type": "function",
      "constant": true
    },
    {
      "inputs": [
        {
          "internalType": "uint256",
          "name": "",
          "type": "uint256"
        }
      ],
      "name": "proposals",
      "outputs": [
        {
          "internalType": "uint256",
          "name": "uid",
          "type": "uint256"
        },
        {
          "internalType": "string",
          "name": "name",
          "type": "string"
        },
        {
          "internalType": "uint256",
          "name": "proposalvalue",
          "type": "uint256"
        },
        {
          "internalType": "address payable",
          "name": "proposer",
          "type": "address"
        },
        {
          "internalType": "uint256",
          "name": "startingPeriod",
          "type": "uint256"
        },
        {
          "internalType": "uint256",
          "name": "startingPeriodFinal",
          "type": "uint256"
        },
        {
          "internalType": "uint256",
          "name": "yesVotes",
          "type": "uint256"
        },
        {
          "internalType": "uint256",
          "name": "yesPostVotes",
          "type": "uint256"
        },
        {
          "internalType": "uint256",
          "name": "noVotes",
          "type": "uint256"
        },
        {
          "internalType": "uint256",
          "name": "noPostVotes",
          "type": "uint256"
        },
        {
          "internalType": "bool",
          "name": "processed",
          "type": "bool"
        },
        {
          "internalType": "bool",
          "name": "didPass",
          "type": "bool"
        },
        {
          "internalType": "bool",
          "name": "didfinalPass",
          "type": "bool"
        },
        {
          "internalType": "bool",
          "name": "aborted",
          "type": "bool"
        }
      ],
      "stateMutability": "view",
      "type": "function",
      "constant": true
    },
    {
      "inputs": [
        {
          "internalType": "address",
          "name": "",
          "type": "address"
        }
      ],
      "name": "voters",
      "outputs": [
        {
          "internalType": "bool",
          "name": "voted",
          "type": "bool"
        },
        {
          "internalType": "uint256",
          "name": "vote",
          "type": "uint256"
        }
      ],
      "stateMutability": "view",
      "type": "function",
      "constant": true
    }
  ],
  "bytecode": "0x608060405234801561001057600080fd5b5061039d806100206000396000f3fe608060405234801561001057600080fd5b506004361061004c5760003560e01c8063013cf08b146100515780632e4176cf1461016357806371e5ee5f14610187578063a3ec138d146101a4575b600080fd5b61006e6004803603602081101561006757600080fd5b50356101e5565b604051808f8152602001806020018e81526020018d6001600160a01b03166001600160a01b031681526020018c81526020018b81526020018a81526020018981526020018881526020018781526020018615151515815260200185151515158152602001841515151581526020018315151515815260200182810382528f818151815260200191508051906020019080838360005b8381101561011b578181015183820152602001610103565b50505050905090810190601f1680156101485780820380516001836020036101000a031916815260200191505b509f5050505050505050505050505050505060405180910390f35b61016b610312565b604080516001600160a01b039092168252519081900360200190f35b61016b6004803603602081101561019d57600080fd5b5035610321565b6101ca600480360360208110156101ba57600080fd5b50356001600160a01b0316610348565b60408051921515835260208301919091528051918290030190f35b600481815481106101f257fe5b90600052602060002090600d0201600091509050806000015490806001018054600181600116156101000203166002900480601f0160208091040260200160405190810160405280929190818152602001828054600181600116156101000203166002900480156102a45780601f10610279576101008083540402835291602001916102a4565b820191906000526020600020905b81548152906001019060200180831161028757829003601f168201915b50505060028401546003850154600486015460058701546006880154600789015460088a015460098b0154600a909b0154999a96996001600160a01b0390961698509396509194909391929160ff80821691610100810482169162010000820481169163010000009004168e565b6001546001600160a01b031681565b6002818154811061032e57fe5b6000918252602090912001546001600160a01b0316905081565b6003602052600090815260409020805460019091015460ff909116908256fea26469706673582212206698f12c9958e185603cb7e8de99d427bd91faa31d0402fd58d5ae73a9b5571464736f6c63430006060033",
  "immutableReferences": {},
  "source": "pragma solidity >=0.4.22 <0.7.0;\n\ncontract utilities {\n        \n    // this is type of an individual member of the network\n    struct Member { \n                uint balance; \n                address payable maddress;\n            }\n    \n    // This is a type for a single proposal.\n    struct Proposal {\n        uint256 uid;\n        string name;   // short name (up to 32 bytes)\n        uint256 proposalvalue;\n        address payable proposer; // the member who submitted the proposal\n        uint256 startingPeriod; // the period in which voting can start for this proposal\n        uint256 startingPeriodFinal;\n        uint256 yesVotes; // the total number of YES votes for this proposal\n        uint256 yesPostVotes; //the total number of YES post approval votes\n        uint256 noVotes; // the total number of NO votes for this proposal\n        uint256 noPostVotes; // the total number of YES post approval votes\n        bool processed; // true only if the proposal has been processed\n        bool didPass; // true only if the proposal passed\n        bool didfinalPass; // Final vote pass post approval\n        bool aborted; // true only if applicant calls \"abort\" fn before end of voting period\n        mapping(address => Vote) votesByMember;\n        address [] votedMembers;\n    }\n    \n    mapping (address => Member) accounts; // Calling Members account details using his address\n    \n     struct Voter {\n                bool voted;  // if true, that person already voted\n                uint vote;   // index of the voted proposal\n    }\n\n \n    address public chairperson; // Created a chairperson address\n    address [] public arr;\n    \n    mapping(address => Voter) public voters; // Calling Voters details using his address\n    \n    // A dynamically-sized array of `Proposal` structs.\n    Proposal[] public proposals;\n    \n    uint256 proposalIndex;\n        \n    event SubmitProposal(uint256 proposalIndex ,address indexed proposer,  uint256 totalworth);\n    event SubmitVote(uint256 indexed proposalIndex, address indexed delegateKey, address indexed memberAddress, uint8 uintVote);\n    event ProcessProposal(uint256 indexed proposalIndex, address indexed applicant, address indexed memberAddress, uint256 tokenTribute, uint256 sharesRequested, bool didPass);\n    \n    enum Vote {\n        Null, // default value, counted as abstention\n        Yes,\n        No\n    }\n\n    \n    \n}",
  "sourcePath": "/home/teja/Documents/BLCON/crowdao/contracts/utilities.sol",
  "compiler": {
    "name": "solc",
    "version": "0.6.6+commit.6c089d02.Emscripten.clang"
  },
  "schemaVersion": "3.1.0",
  "updatedAt": "2020-05-13T15:00:26.472Z",
  "networkType": "ethereum",
  "devdoc": {
    "methods": {}
  },
  "userdoc": {
    "methods": {}
  }
}